{
	"contracts/arrays.sol": {
		"Arrays": {
			"abi": [
				{
					"inputs": [
						{
							"internalType": "uint256",
							"name": "_valeur",
							"type": "uint256"
						}
					],
					"name": "addValue",
					"outputs": [],
					"stateMutability": "nonpayable",
					"type": "function"
				},
				{
					"inputs": [
						{
							"internalType": "uint256",
							"name": "_index",
							"type": "uint256"
						},
						{
							"internalType": "uint256",
							"name": "_newVal",
							"type": "uint256"
						}
					],
					"name": "updateValue",
					"outputs": [],
					"stateMutability": "nonpayable",
					"type": "function"
				}
			],
			"devdoc": {
				"kind": "dev",
				"methods": {},
				"version": 1
			},
			"evm": {
				"assembly": "    /* \"contracts/arrays.sol\":304:538  contract Arrays {\r... */\n  mstore(0x40, 0x80)\n  callvalue\n  dup1\n  iszero\n  tag_1\n  jumpi\n  0x00\n  dup1\n  revert\ntag_1:\n  pop\n  dataSize(sub_0)\n  dup1\n  dataOffset(sub_0)\n  0x00\n  codecopy\n  0x00\n  return\nstop\n\nsub_0: assembly {\n        /* \"contracts/arrays.sol\":304:538  contract Arrays {\r... */\n      mstore(0x40, 0x80)\n      callvalue\n      dup1\n      iszero\n      tag_1\n      jumpi\n      0x00\n      dup1\n      revert\n    tag_1:\n      pop\n      jumpi(tag_2, lt(calldatasize, 0x04))\n      shr(0xe0, calldataload(0x00))\n      dup1\n      0x5b500826\n      eq\n      tag_3\n      jumpi\n      dup1\n      0x5b9af12b\n      eq\n      tag_4\n      jumpi\n    tag_2:\n      0x00\n      dup1\n      revert\n        /* \"contracts/arrays.sol\":435:533  function updateValue(uint _index, uint _newVal) public {\r... */\n    tag_3:\n      tag_5\n      0x04\n      dup1\n      calldatasize\n      sub\n      dup2\n      add\n      swap1\n      tag_6\n      swap2\n      swap1\n      tag_7\n      jump\t// in\n    tag_6:\n      tag_8\n      jump\t// in\n    tag_5:\n      stop\n        /* \"contracts/arrays.sol\":349:427  function addValue(uint _valeur) public {\r... */\n    tag_4:\n      tag_9\n      0x04\n      dup1\n      calldatasize\n      sub\n      dup2\n      add\n      swap1\n      tag_10\n      swap2\n      swap1\n      tag_11\n      jump\t// in\n    tag_10:\n      tag_12\n      jump\t// in\n    tag_9:\n      stop\n        /* \"contracts/arrays.sol\":435:533  function updateValue(uint _index, uint _newVal) public {\r... */\n    tag_8:\n        /* \"contracts/arrays.sol\":518:525  _newVal */\n      dup1\n        /* \"contracts/arrays.sol\":501:507  nombre */\n      0x00\n        /* \"contracts/arrays.sol\":508:514  _index */\n      dup4\n        /* \"contracts/arrays.sol\":501:515  nombre[_index] */\n      dup2\n      sload\n      dup2\n      lt\n      tag_14\n      jumpi\n      tag_15\n      tag_16\n      jump\t// in\n    tag_15:\n    tag_14:\n      swap1\n      0x00\n      mstore\n      keccak256(0x00, 0x20)\n      add\n        /* \"contracts/arrays.sol\":501:525  nombre[_index] = _newVal */\n      dup2\n      swap1\n      sstore\n      pop\n        /* \"contracts/arrays.sol\":435:533  function updateValue(uint _index, uint _newVal) public {\r... */\n      pop\n      pop\n      jump\t// out\n        /* \"contracts/arrays.sol\":349:427  function addValue(uint _valeur) public {\r... */\n    tag_12:\n        /* \"contracts/arrays.sol\":399:405  nombre */\n      0x00\n        /* \"contracts/arrays.sol\":411:418  _valeur */\n      dup2\n        /* \"contracts/arrays.sol\":399:419  nombre.push(_valeur) */\n      swap1\n      dup1\n      0x01\n      dup2\n      sload\n      add\n      dup1\n      dup3\n      sstore\n      dup1\n      swap2\n      pop\n      pop\n      0x01\n      swap1\n      sub\n      swap1\n      0x00\n      mstore\n      keccak256(0x00, 0x20)\n      add\n      0x00\n      swap1\n      swap2\n      swap1\n      swap2\n      swap1\n      swap2\n      pop\n      sstore\n        /* \"contracts/arrays.sol\":349:427  function addValue(uint _valeur) public {\r... */\n      pop\n      jump\t// out\n        /* \"#utility.yul\":7:146   */\n    tag_21:\n        /* \"#utility.yul\":53:58   */\n      0x00\n        /* \"#utility.yul\":91:97   */\n      dup2\n        /* \"#utility.yul\":78:98   */\n      calldataload\n        /* \"#utility.yul\":69:98   */\n      swap1\n      pop\n        /* \"#utility.yul\":107:140   */\n      tag_23\n        /* \"#utility.yul\":134:139   */\n      dup2\n        /* \"#utility.yul\":107:140   */\n      tag_24\n      jump\t// in\n    tag_23:\n        /* \"#utility.yul\":7:146   */\n      swap3\n      swap2\n      pop\n      pop\n      jump\t// out\n        /* \"#utility.yul\":152:481   */\n    tag_11:\n        /* \"#utility.yul\":211:217   */\n      0x00\n        /* \"#utility.yul\":260:262   */\n      0x20\n        /* \"#utility.yul\":248:257   */\n      dup3\n        /* \"#utility.yul\":239:246   */\n      dup5\n        /* \"#utility.yul\":235:258   */\n      sub\n        /* \"#utility.yul\":231:263   */\n      slt\n        /* \"#utility.yul\":228:347   */\n      iszero\n      tag_26\n      jumpi\n        /* \"#utility.yul\":266:345   */\n      tag_27\n      tag_28\n      jump\t// in\n    tag_27:\n        /* \"#utility.yul\":228:347   */\n    tag_26:\n        /* \"#utility.yul\":386:387   */\n      0x00\n        /* \"#utility.yul\":411:464   */\n      tag_29\n        /* \"#utility.yul\":456:463   */\n      dup5\n        /* \"#utility.yul\":447:453   */\n      dup3\n        /* \"#utility.yul\":436:445   */\n      dup6\n        /* \"#utility.yul\":432:454   */\n      add\n        /* \"#utility.yul\":411:464   */\n      tag_21\n      jump\t// in\n    tag_29:\n        /* \"#utility.yul\":401:464   */\n      swap2\n      pop\n        /* \"#utility.yul\":357:474   */\n      pop\n        /* \"#utility.yul\":152:481   */\n      swap3\n      swap2\n      pop\n      pop\n      jump\t// out\n        /* \"#utility.yul\":487:961   */\n    tag_7:\n        /* \"#utility.yul\":555:561   */\n      0x00\n        /* \"#utility.yul\":563:569   */\n      dup1\n        /* \"#utility.yul\":612:614   */\n      0x40\n        /* \"#utility.yul\":600:609   */\n      dup4\n        /* \"#utility.yul\":591:598   */\n      dup6\n        /* \"#utility.yul\":587:610   */\n      sub\n        /* \"#utility.yul\":583:615   */\n      slt\n        /* \"#utility.yul\":580:699   */\n      iszero\n      tag_31\n      jumpi\n        /* \"#utility.yul\":618:697   */\n      tag_32\n      tag_28\n      jump\t// in\n    tag_32:\n        /* \"#utility.yul\":580:699   */\n    tag_31:\n        /* \"#utility.yul\":738:739   */\n      0x00\n        /* \"#utility.yul\":763:816   */\n      tag_33\n        /* \"#utility.yul\":808:815   */\n      dup6\n        /* \"#utility.yul\":799:805   */\n      dup3\n        /* \"#utility.yul\":788:797   */\n      dup7\n        /* \"#utility.yul\":784:806   */\n      add\n        /* \"#utility.yul\":763:816   */\n      tag_21\n      jump\t// in\n    tag_33:\n        /* \"#utility.yul\":753:816   */\n      swap3\n      pop\n        /* \"#utility.yul\":709:826   */\n      pop\n        /* \"#utility.yul\":865:867   */\n      0x20\n        /* \"#utility.yul\":891:944   */\n      tag_34\n        /* \"#utility.yul\":936:943   */\n      dup6\n        /* \"#utility.yul\":927:933   */\n      dup3\n        /* \"#utility.yul\":916:925   */\n      dup7\n        /* \"#utility.yul\":912:934   */\n      add\n        /* \"#utility.yul\":891:944   */\n      tag_21\n      jump\t// in\n    tag_34:\n        /* \"#utility.yul\":881:944   */\n      swap2\n      pop\n        /* \"#utility.yul\":836:954   */\n      pop\n        /* \"#utility.yul\":487:961   */\n      swap3\n      pop\n      swap3\n      swap1\n      pop\n      jump\t// out\n        /* \"#utility.yul\":1048:1125   */\n    tag_37:\n        /* \"#utility.yul\":1085:1092   */\n      0x00\n        /* \"#utility.yul\":1114:1119   */\n      dup2\n        /* \"#utility.yul\":1103:1119   */\n      swap1\n      pop\n        /* \"#utility.yul\":1048:1125   */\n      swap2\n      swap1\n      pop\n      jump\t// out\n        /* \"#utility.yul\":1131:1311   */\n    tag_16:\n        /* \"#utility.yul\":1179:1256   */\n      0x4e487b7100000000000000000000000000000000000000000000000000000000\n        /* \"#utility.yul\":1176:1177   */\n      0x00\n        /* \"#utility.yul\":1169:1257   */\n      mstore\n        /* \"#utility.yul\":1276:1280   */\n      0x32\n        /* \"#utility.yul\":1273:1274   */\n      0x04\n        /* \"#utility.yul\":1266:1281   */\n      mstore\n        /* \"#utility.yul\":1300:1304   */\n      0x24\n        /* \"#utility.yul\":1297:1298   */\n      0x00\n        /* \"#utility.yul\":1290:1305   */\n      revert\n        /* \"#utility.yul\":1440:1557   */\n    tag_28:\n        /* \"#utility.yul\":1549:1550   */\n      0x00\n        /* \"#utility.yul\":1546:1547   */\n      dup1\n        /* \"#utility.yul\":1539:1551   */\n      revert\n        /* \"#utility.yul\":1563:1685   */\n    tag_24:\n        /* \"#utility.yul\":1636:1660   */\n      tag_44\n        /* \"#utility.yul\":1654:1659   */\n      dup2\n        /* \"#utility.yul\":1636:1660   */\n      tag_37\n      jump\t// in\n    tag_44:\n        /* \"#utility.yul\":1629:1634   */\n      dup2\n        /* \"#utility.yul\":1626:1661   */\n      eq\n        /* \"#utility.yul\":1616:1679   */\n      tag_45\n      jumpi\n        /* \"#utility.yul\":1675:1676   */\n      0x00\n        /* \"#utility.yul\":1672:1673   */\n      dup1\n        /* \"#utility.yul\":1665:1677   */\n      revert\n        /* \"#utility.yul\":1616:1679   */\n    tag_45:\n        /* \"#utility.yul\":1563:1685   */\n      pop\n      jump\t// out\n\n    auxdata: 0xa2646970667358221220c0b643f90a02c5d3e36b2d0422121a2c615cd7905d081dbacf89f926f72d153764736f6c63430008070033\n}\n",
				"bytecode": {
					"linkReferences": {},
					"object": "608060405234801561001057600080fd5b506101d3806100206000396000f3fe608060405234801561001057600080fd5b50600436106100365760003560e01c80635b5008261461003b5780635b9af12b14610057575b600080fd5b61005560048036038101906100509190610108565b610073565b005b610071600480360381019061006c91906100db565b61009a565b005b806000838154811061008857610087610152565b5b90600052602060002001819055505050565b600081908060018154018082558091505060019003906000526020600020016000909190919091505550565b6000813590506100d581610186565b92915050565b6000602082840312156100f1576100f0610181565b5b60006100ff848285016100c6565b91505092915050565b6000806040838503121561011f5761011e610181565b5b600061012d858286016100c6565b925050602061013e858286016100c6565b9150509250929050565b6000819050919050565b7f4e487b7100000000000000000000000000000000000000000000000000000000600052603260045260246000fd5b600080fd5b61018f81610148565b811461019a57600080fd5b5056fea2646970667358221220c0b643f90a02c5d3e36b2d0422121a2c615cd7905d081dbacf89f926f72d153764736f6c63430008070033",
					"opcodes": "PUSH1 0x80 PUSH1 0x40 MSTORE CALLVALUE DUP1 ISZERO PUSH2 0x10 JUMPI PUSH1 0x0 DUP1 REVERT JUMPDEST POP PUSH2 0x1D3 DUP1 PUSH2 0x20 PUSH1 0x0 CODECOPY PUSH1 0x0 RETURN INVALID PUSH1 0x80 PUSH1 0x40 MSTORE CALLVALUE DUP1 ISZERO PUSH2 0x10 JUMPI PUSH1 0x0 DUP1 REVERT JUMPDEST POP PUSH1 0x4 CALLDATASIZE LT PUSH2 0x36 JUMPI PUSH1 0x0 CALLDATALOAD PUSH1 0xE0 SHR DUP1 PUSH4 0x5B500826 EQ PUSH2 0x3B JUMPI DUP1 PUSH4 0x5B9AF12B EQ PUSH2 0x57 JUMPI JUMPDEST PUSH1 0x0 DUP1 REVERT JUMPDEST PUSH2 0x55 PUSH1 0x4 DUP1 CALLDATASIZE SUB DUP2 ADD SWAP1 PUSH2 0x50 SWAP2 SWAP1 PUSH2 0x108 JUMP JUMPDEST PUSH2 0x73 JUMP JUMPDEST STOP JUMPDEST PUSH2 0x71 PUSH1 0x4 DUP1 CALLDATASIZE SUB DUP2 ADD SWAP1 PUSH2 0x6C SWAP2 SWAP1 PUSH2 0xDB JUMP JUMPDEST PUSH2 0x9A JUMP JUMPDEST STOP JUMPDEST DUP1 PUSH1 0x0 DUP4 DUP2 SLOAD DUP2 LT PUSH2 0x88 JUMPI PUSH2 0x87 PUSH2 0x152 JUMP JUMPDEST JUMPDEST SWAP1 PUSH1 0x0 MSTORE PUSH1 0x20 PUSH1 0x0 KECCAK256 ADD DUP2 SWAP1 SSTORE POP POP POP JUMP JUMPDEST PUSH1 0x0 DUP2 SWAP1 DUP1 PUSH1 0x1 DUP2 SLOAD ADD DUP1 DUP3 SSTORE DUP1 SWAP2 POP POP PUSH1 0x1 SWAP1 SUB SWAP1 PUSH1 0x0 MSTORE PUSH1 0x20 PUSH1 0x0 KECCAK256 ADD PUSH1 0x0 SWAP1 SWAP2 SWAP1 SWAP2 SWAP1 SWAP2 POP SSTORE POP JUMP JUMPDEST PUSH1 0x0 DUP2 CALLDATALOAD SWAP1 POP PUSH2 0xD5 DUP2 PUSH2 0x186 JUMP JUMPDEST SWAP3 SWAP2 POP POP JUMP JUMPDEST PUSH1 0x0 PUSH1 0x20 DUP3 DUP5 SUB SLT ISZERO PUSH2 0xF1 JUMPI PUSH2 0xF0 PUSH2 0x181 JUMP JUMPDEST JUMPDEST PUSH1 0x0 PUSH2 0xFF DUP5 DUP3 DUP6 ADD PUSH2 0xC6 JUMP JUMPDEST SWAP2 POP POP SWAP3 SWAP2 POP POP JUMP JUMPDEST PUSH1 0x0 DUP1 PUSH1 0x40 DUP4 DUP6 SUB SLT ISZERO PUSH2 0x11F JUMPI PUSH2 0x11E PUSH2 0x181 JUMP JUMPDEST JUMPDEST PUSH1 0x0 PUSH2 0x12D DUP6 DUP3 DUP7 ADD PUSH2 0xC6 JUMP JUMPDEST SWAP3 POP POP PUSH1 0x20 PUSH2 0x13E DUP6 DUP3 DUP7 ADD PUSH2 0xC6 JUMP JUMPDEST SWAP2 POP POP SWAP3 POP SWAP3 SWAP1 POP JUMP JUMPDEST PUSH1 0x0 DUP2 SWAP1 POP SWAP2 SWAP1 POP JUMP JUMPDEST PUSH32 0x4E487B7100000000000000000000000000000000000000000000000000000000 PUSH1 0x0 MSTORE PUSH1 0x32 PUSH1 0x4 MSTORE PUSH1 0x24 PUSH1 0x0 REVERT JUMPDEST PUSH1 0x0 DUP1 REVERT JUMPDEST PUSH2 0x18F DUP2 PUSH2 0x148 JUMP JUMPDEST DUP2 EQ PUSH2 0x19A JUMPI PUSH1 0x0 DUP1 REVERT JUMPDEST POP JUMP INVALID LOG2 PUSH5 0x6970667358 0x22 SLT KECCAK256 0xC0 0xB6 NUMBER 0xF9 EXP MUL 0xC5 0xD3 0xE3 PUSH12 0x2D0422121A2C615CD7905D08 SAR 0xBA 0xCF DUP10 0xF9 0x26 0xF7 0x2D ISZERO CALLDATACOPY PUSH5 0x736F6C6343 STOP ADDMOD SMOD STOP CALLER "
				},
				"gasEstimates": {
					"creation": {
						"codeDepositCost": "93400",
						"executionCost": "141",
						"totalCost": "93541"
					},
					"external": {
						"addValue(uint256)": "46829",
						"updateValue(uint256,uint256)": "infinite"
					}
				},
				"methodIdentifiers": {
					"addValue(uint256)": "5b9af12b",
					"updateValue(uint256,uint256)": "5b500826"
				}
			},
			"storageLayout": {
				"storage": [
					{
						"astId": 4,
						"contract": "contracts/arrays.sol:Arrays",
						"label": "nombre",
						"offset": 0,
						"slot": "0",
						"type": "t_array(t_uint256)dyn_storage"
					}
				],
				"types": {
					"t_array(t_uint256)dyn_storage": {
						"base": "t_uint256",
						"encoding": "dynamic_array",
						"label": "uint256[]",
						"numberOfBytes": "32"
					},
					"t_uint256": {
						"encoding": "inplace",
						"label": "uint256",
						"numberOfBytes": "32"
					}
				}
			},
			"userdoc": {
				"kind": "user",
				"methods": {},
				"version": 1
			}
		}
	}
}