{
	"contracts/arrays.sol": {
		"Arrays": {
			"abi": [
				{
					"inputs": [
						{
							"internalType": "uint256",
							"name": "_valeur",
							"type": "uint256"
						}
					],
					"name": "addValue",
					"outputs": [],
					"stateMutability": "nonpayable",
					"type": "function"
				},
				{
					"inputs": [
						{
							"internalType": "uint256",
							"name": "_index",
							"type": "uint256"
						}
					],
					"name": "deleteValue",
					"outputs": [],
					"stateMutability": "nonpayable",
					"type": "function"
				},
				{
					"inputs": [],
					"name": "getNbx2",
					"outputs": [
						{
							"internalType": "uint256[]",
							"name": "",
							"type": "uint256[]"
						}
					],
					"stateMutability": "view",
					"type": "function"
				},
				{
					"inputs": [
						{
							"internalType": "uint256",
							"name": "_index",
							"type": "uint256"
						}
					],
					"name": "getValue",
					"outputs": [
						{
							"internalType": "uint256",
							"name": "",
							"type": "uint256"
						}
					],
					"stateMutability": "view",
					"type": "function"
				},
				{
					"inputs": [
						{
							"internalType": "uint256",
							"name": "_index",
							"type": "uint256"
						},
						{
							"internalType": "uint256",
							"name": "_newVal",
							"type": "uint256"
						}
					],
					"name": "updateValue",
					"outputs": [],
					"stateMutability": "nonpayable",
					"type": "function"
				}
			],
			"devdoc": {
				"kind": "dev",
				"methods": {},
				"version": 1
			},
			"evm": {
				"assembly": "    /* \"contracts/arrays.sol\":304:1016  contract Arrays {\r... */\n  mstore(0x40, 0x80)\n  callvalue\n  dup1\n  iszero\n  tag_1\n  jumpi\n  0x00\n  dup1\n  revert\ntag_1:\n  pop\n  dataSize(sub_0)\n  dup1\n  dataOffset(sub_0)\n  0x00\n  codecopy\n  0x00\n  return\nstop\n\nsub_0: assembly {\n        /* \"contracts/arrays.sol\":304:1016  contract Arrays {\r... */\n      mstore(0x40, 0x80)\n      callvalue\n      dup1\n      iszero\n      tag_1\n      jumpi\n      0x00\n      dup1\n      revert\n    tag_1:\n      pop\n      jumpi(tag_2, lt(calldatasize, 0x04))\n      shr(0xe0, calldataload(0x00))\n      dup1\n      0x0cf3dfd9\n      eq\n      tag_3\n      jumpi\n      dup1\n      0x0ff4c916\n      eq\n      tag_4\n      jumpi\n      dup1\n      0x5b500826\n      eq\n      tag_5\n      jumpi\n      dup1\n      0x5b9af12b\n      eq\n      tag_6\n      jumpi\n      dup1\n      0x8d52b3fd\n      eq\n      tag_7\n      jumpi\n    tag_2:\n      0x00\n      dup1\n      revert\n        /* \"contracts/arrays.sol\":541:622  function deleteValue(uint _index) public {\r... */\n    tag_3:\n      tag_8\n      0x04\n      dup1\n      calldatasize\n      sub\n      dup2\n      add\n      swap1\n      tag_9\n      swap2\n      swap1\n      tag_10\n      jump\t// in\n    tag_9:\n      tag_11\n      jump\t// in\n    tag_8:\n      stop\n        /* \"contracts/arrays.sol\":630:726  function getValue(uint _index) public view returns(uint){\r... */\n    tag_4:\n      tag_12\n      0x04\n      dup1\n      calldatasize\n      sub\n      dup2\n      add\n      swap1\n      tag_13\n      swap2\n      swap1\n      tag_10\n      jump\t// in\n    tag_13:\n      tag_14\n      jump\t// in\n    tag_12:\n      mload(0x40)\n      tag_15\n      swap2\n      swap1\n      tag_16\n      jump\t// in\n    tag_15:\n      mload(0x40)\n      dup1\n      swap2\n      sub\n      swap1\n      return\n        /* \"contracts/arrays.sol\":435:533  function updateValue(uint _index, uint _newVal) public {\r... */\n    tag_5:\n      tag_17\n      0x04\n      dup1\n      calldatasize\n      sub\n      dup2\n      add\n      swap1\n      tag_18\n      swap2\n      swap1\n      tag_19\n      jump\t// in\n    tag_18:\n      tag_20\n      jump\t// in\n    tag_17:\n      stop\n        /* \"contracts/arrays.sol\":349:427  function addValue(uint _valeur) public {\r... */\n    tag_6:\n      tag_21\n      0x04\n      dup1\n      calldatasize\n      sub\n      dup2\n      add\n      swap1\n      tag_22\n      swap2\n      swap1\n      tag_10\n      jump\t// in\n    tag_22:\n      tag_23\n      jump\t// in\n    tag_21:\n      stop\n        /* \"contracts/arrays.sol\":739:1013  function getNbx2() public view returns (uint[] memory){\r... */\n    tag_7:\n      tag_24\n      tag_25\n      jump\t// in\n    tag_24:\n      mload(0x40)\n      tag_26\n      swap2\n      swap1\n      tag_27\n      jump\t// in\n    tag_26:\n      mload(0x40)\n      dup1\n      swap2\n      sub\n      swap1\n      return\n        /* \"contracts/arrays.sol\":541:622  function deleteValue(uint _index) public {\r... */\n    tag_11:\n        /* \"contracts/arrays.sol\":600:606  nombre */\n      0x00\n        /* \"contracts/arrays.sol\":607:613  _index */\n      dup2\n        /* \"contracts/arrays.sol\":600:614  nombre[_index] */\n      dup2\n      sload\n      dup2\n      lt\n      tag_29\n      jumpi\n      tag_30\n      tag_31\n      jump\t// in\n    tag_30:\n    tag_29:\n      swap1\n      0x00\n      mstore\n      keccak256(0x00, 0x20)\n      add\n        /* \"contracts/arrays.sol\":593:614  delete nombre[_index] */\n      0x00\n      swap1\n      sstore\n        /* \"contracts/arrays.sol\":541:622  function deleteValue(uint _index) public {\r... */\n      pop\n      jump\t// out\n        /* \"contracts/arrays.sol\":630:726  function getValue(uint _index) public view returns(uint){\r... */\n    tag_14:\n        /* \"contracts/arrays.sol\":681:685  uint */\n      0x00\n        /* \"contracts/arrays.sol\":704:710  nombre */\n      dup1\n        /* \"contracts/arrays.sol\":711:717  _index */\n      dup3\n        /* \"contracts/arrays.sol\":704:718  nombre[_index] */\n      dup2\n      sload\n      dup2\n      lt\n      tag_34\n      jumpi\n      tag_35\n      tag_31\n      jump\t// in\n    tag_35:\n    tag_34:\n      swap1\n      0x00\n      mstore\n      keccak256(0x00, 0x20)\n      add\n      sload\n        /* \"contracts/arrays.sol\":697:718  return nombre[_index] */\n      swap1\n      pop\n        /* \"contracts/arrays.sol\":630:726  function getValue(uint _index) public view returns(uint){\r... */\n      swap2\n      swap1\n      pop\n      jump\t// out\n        /* \"contracts/arrays.sol\":435:533  function updateValue(uint _index, uint _newVal) public {\r... */\n    tag_20:\n        /* \"contracts/arrays.sol\":518:525  _newVal */\n      dup1\n        /* \"contracts/arrays.sol\":501:507  nombre */\n      0x00\n        /* \"contracts/arrays.sol\":508:514  _index */\n      dup4\n        /* \"contracts/arrays.sol\":501:515  nombre[_index] */\n      dup2\n      sload\n      dup2\n      lt\n      tag_38\n      jumpi\n      tag_39\n      tag_31\n      jump\t// in\n    tag_39:\n    tag_38:\n      swap1\n      0x00\n      mstore\n      keccak256(0x00, 0x20)\n      add\n        /* \"contracts/arrays.sol\":501:525  nombre[_index] = _newVal */\n      dup2\n      swap1\n      sstore\n      pop\n        /* \"contracts/arrays.sol\":435:533  function updateValue(uint _index, uint _newVal) public {\r... */\n      pop\n      pop\n      jump\t// out\n        /* \"contracts/arrays.sol\":349:427  function addValue(uint _valeur) public {\r... */\n    tag_23:\n        /* \"contracts/arrays.sol\":399:405  nombre */\n      0x00\n        /* \"contracts/arrays.sol\":411:418  _valeur */\n      dup2\n        /* \"contracts/arrays.sol\":399:419  nombre.push(_valeur) */\n      swap1\n      dup1\n      0x01\n      dup2\n      sload\n      add\n      dup1\n      dup3\n      sstore\n      dup1\n      swap2\n      pop\n      pop\n      0x01\n      swap1\n      sub\n      swap1\n      0x00\n      mstore\n      keccak256(0x00, 0x20)\n      add\n      0x00\n      swap1\n      swap2\n      swap1\n      swap2\n      swap1\n      swap2\n      pop\n      sstore\n        /* \"contracts/arrays.sol\":349:427  function addValue(uint _valeur) public {\r... */\n      pop\n      jump\t// out\n        /* \"contracts/arrays.sol\":739:1013  function getNbx2() public view returns (uint[] memory){\r... */\n    tag_25:\n        /* \"contracts/arrays.sol\":779:792  uint[] memory */\n      0x60\n        /* \"contracts/arrays.sol\":804:817  uint longueur */\n      0x00\n        /* \"contracts/arrays.sol\":820:826  nombre */\n      dup1\n        /* \"contracts/arrays.sol\":820:833  nombre.length */\n      dup1\n      sload\n      swap1\n      pop\n        /* \"contracts/arrays.sol\":804:833  uint longueur = nombre.length */\n      swap1\n      pop\n        /* \"contracts/arrays.sol\":844:863  uint[] memory  nbx2 */\n      0x00\n        /* \"contracts/arrays.sol\":877:885  longueur */\n      dup2\n        /* \"contracts/arrays.sol\":866:886  new uint[](longueur) */\n      0xffffffffffffffff\n      dup2\n      gt\n      iszero\n      tag_44\n      jumpi\n      tag_45\n      tag_46\n      jump\t// in\n    tag_45:\n    tag_44:\n      mload(0x40)\n      swap1\n      dup1\n      dup3\n      mstore\n      dup1\n      0x20\n      mul\n      0x20\n      add\n      dup3\n      add\n      0x40\n      mstore\n      dup1\n      iszero\n      tag_47\n      jumpi\n      dup2\n      0x20\n      add\n      0x20\n      dup3\n      mul\n      dup1\n      calldatasize\n      dup4\n      calldatacopy\n      dup1\n      dup3\n      add\n      swap2\n      pop\n      pop\n      swap1\n      pop\n    tag_47:\n      pop\n        /* \"contracts/arrays.sol\":844:886  uint[] memory  nbx2 = new uint[](longueur) */\n      swap1\n      pop\n        /* \"contracts/arrays.sol\":903:909  uint i */\n      0x00\n        /* \"contracts/arrays.sol\":898:984  for (uint i  = 0; i < longueur; i++){\r... */\n    tag_48:\n        /* \"contracts/arrays.sol\":920:928  longueur */\n      dup3\n        /* \"contracts/arrays.sol\":916:917  i */\n      dup2\n        /* \"contracts/arrays.sol\":916:928  i < longueur */\n      lt\n        /* \"contracts/arrays.sol\":898:984  for (uint i  = 0; i < longueur; i++){\r... */\n      iszero\n      tag_49\n      jumpi\n        /* \"contracts/arrays.sol\":971:972  2 */\n      0x02\n        /* \"contracts/arrays.sol\":959:965  nombre */\n      0x00\n        /* \"contracts/arrays.sol\":966:967  i */\n      dup3\n        /* \"contracts/arrays.sol\":959:968  nombre[i] */\n      dup2\n      sload\n      dup2\n      lt\n      tag_51\n      jumpi\n      tag_52\n      tag_31\n      jump\t// in\n    tag_52:\n    tag_51:\n      swap1\n      0x00\n      mstore\n      keccak256(0x00, 0x20)\n      add\n      sload\n        /* \"contracts/arrays.sol\":959:972  nombre[i] * 2 */\n      tag_54\n      swap2\n      swap1\n      tag_55\n      jump\t// in\n    tag_54:\n        /* \"contracts/arrays.sol\":949:953  nbx2 */\n      dup3\n        /* \"contracts/arrays.sol\":954:955  i */\n      dup3\n        /* \"contracts/arrays.sol\":949:956  nbx2[i] */\n      dup2\n      mload\n      dup2\n      lt\n      tag_56\n      jumpi\n      tag_57\n      tag_31\n      jump\t// in\n    tag_57:\n    tag_56:\n      0x20\n      mul\n      0x20\n      add\n      add\n        /* \"contracts/arrays.sol\":949:972  nbx2[i] = nombre[i] * 2 */\n      dup2\n      dup2\n      mstore\n      pop\n      pop\n        /* \"contracts/arrays.sol\":930:933  i++ */\n      dup1\n      dup1\n      tag_58\n      swap1\n      tag_59\n      jump\t// in\n    tag_58:\n      swap2\n      pop\n      pop\n        /* \"contracts/arrays.sol\":898:984  for (uint i  = 0; i < longueur; i++){\r... */\n      jump(tag_48)\n    tag_49:\n      pop\n        /* \"contracts/arrays.sol\":1001:1005  nbx2 */\n      dup1\n        /* \"contracts/arrays.sol\":994:1005  return nbx2 */\n      swap3\n      pop\n      pop\n      pop\n        /* \"contracts/arrays.sol\":739:1013  function getNbx2() public view returns (uint[] memory){\r... */\n      swap1\n      jump\t// out\n        /* \"#utility.yul\":7:146   */\n    tag_61:\n        /* \"#utility.yul\":53:58   */\n      0x00\n        /* \"#utility.yul\":91:97   */\n      dup2\n        /* \"#utility.yul\":78:98   */\n      calldataload\n        /* \"#utility.yul\":69:98   */\n      swap1\n      pop\n        /* \"#utility.yul\":107:140   */\n      tag_63\n        /* \"#utility.yul\":134:139   */\n      dup2\n        /* \"#utility.yul\":107:140   */\n      tag_64\n      jump\t// in\n    tag_63:\n        /* \"#utility.yul\":7:146   */\n      swap3\n      swap2\n      pop\n      pop\n      jump\t// out\n        /* \"#utility.yul\":152:481   */\n    tag_10:\n        /* \"#utility.yul\":211:217   */\n      0x00\n        /* \"#utility.yul\":260:262   */\n      0x20\n        /* \"#utility.yul\":248:257   */\n      dup3\n        /* \"#utility.yul\":239:246   */\n      dup5\n        /* \"#utility.yul\":235:258   */\n      sub\n        /* \"#utility.yul\":231:263   */\n      slt\n        /* \"#utility.yul\":228:347   */\n      iszero\n      tag_66\n      jumpi\n        /* \"#utility.yul\":266:345   */\n      tag_67\n      tag_68\n      jump\t// in\n    tag_67:\n        /* \"#utility.yul\":228:347   */\n    tag_66:\n        /* \"#utility.yul\":386:387   */\n      0x00\n        /* \"#utility.yul\":411:464   */\n      tag_69\n        /* \"#utility.yul\":456:463   */\n      dup5\n        /* \"#utility.yul\":447:453   */\n      dup3\n        /* \"#utility.yul\":436:445   */\n      dup6\n        /* \"#utility.yul\":432:454   */\n      add\n        /* \"#utility.yul\":411:464   */\n      tag_61\n      jump\t// in\n    tag_69:\n        /* \"#utility.yul\":401:464   */\n      swap2\n      pop\n        /* \"#utility.yul\":357:474   */\n      pop\n        /* \"#utility.yul\":152:481   */\n      swap3\n      swap2\n      pop\n      pop\n      jump\t// out\n        /* \"#utility.yul\":487:961   */\n    tag_19:\n        /* \"#utility.yul\":555:561   */\n      0x00\n        /* \"#utility.yul\":563:569   */\n      dup1\n        /* \"#utility.yul\":612:614   */\n      0x40\n        /* \"#utility.yul\":600:609   */\n      dup4\n        /* \"#utility.yul\":591:598   */\n      dup6\n        /* \"#utility.yul\":587:610   */\n      sub\n        /* \"#utility.yul\":583:615   */\n      slt\n        /* \"#utility.yul\":580:699   */\n      iszero\n      tag_71\n      jumpi\n        /* \"#utility.yul\":618:697   */\n      tag_72\n      tag_68\n      jump\t// in\n    tag_72:\n        /* \"#utility.yul\":580:699   */\n    tag_71:\n        /* \"#utility.yul\":738:739   */\n      0x00\n        /* \"#utility.yul\":763:816   */\n      tag_73\n        /* \"#utility.yul\":808:815   */\n      dup6\n        /* \"#utility.yul\":799:805   */\n      dup3\n        /* \"#utility.yul\":788:797   */\n      dup7\n        /* \"#utility.yul\":784:806   */\n      add\n        /* \"#utility.yul\":763:816   */\n      tag_61\n      jump\t// in\n    tag_73:\n        /* \"#utility.yul\":753:816   */\n      swap3\n      pop\n        /* \"#utility.yul\":709:826   */\n      pop\n        /* \"#utility.yul\":865:867   */\n      0x20\n        /* \"#utility.yul\":891:944   */\n      tag_74\n        /* \"#utility.yul\":936:943   */\n      dup6\n        /* \"#utility.yul\":927:933   */\n      dup3\n        /* \"#utility.yul\":916:925   */\n      dup7\n        /* \"#utility.yul\":912:934   */\n      add\n        /* \"#utility.yul\":891:944   */\n      tag_61\n      jump\t// in\n    tag_74:\n        /* \"#utility.yul\":881:944   */\n      swap2\n      pop\n        /* \"#utility.yul\":836:954   */\n      pop\n        /* \"#utility.yul\":487:961   */\n      swap3\n      pop\n      swap3\n      swap1\n      pop\n      jump\t// out\n        /* \"#utility.yul\":967:1146   */\n    tag_75:\n        /* \"#utility.yul\":1036:1046   */\n      0x00\n        /* \"#utility.yul\":1057:1103   */\n      tag_77\n        /* \"#utility.yul\":1099:1102   */\n      dup4\n        /* \"#utility.yul\":1091:1097   */\n      dup4\n        /* \"#utility.yul\":1057:1103   */\n      tag_78\n      jump\t// in\n    tag_77:\n        /* \"#utility.yul\":1135:1139   */\n      0x20\n        /* \"#utility.yul\":1130:1133   */\n      dup4\n        /* \"#utility.yul\":1126:1140   */\n      add\n        /* \"#utility.yul\":1112:1140   */\n      swap1\n      pop\n        /* \"#utility.yul\":967:1146   */\n      swap3\n      swap2\n      pop\n      pop\n      jump\t// out\n        /* \"#utility.yul\":1182:1914   */\n    tag_79:\n        /* \"#utility.yul\":1301:1304   */\n      0x00\n        /* \"#utility.yul\":1330:1384   */\n      tag_81\n        /* \"#utility.yul\":1378:1383   */\n      dup3\n        /* \"#utility.yul\":1330:1384   */\n      tag_82\n      jump\t// in\n    tag_81:\n        /* \"#utility.yul\":1400:1486   */\n      tag_83\n        /* \"#utility.yul\":1479:1485   */\n      dup2\n        /* \"#utility.yul\":1474:1477   */\n      dup6\n        /* \"#utility.yul\":1400:1486   */\n      tag_84\n      jump\t// in\n    tag_83:\n        /* \"#utility.yul\":1393:1486   */\n      swap4\n      pop\n        /* \"#utility.yul\":1510:1566   */\n      tag_85\n        /* \"#utility.yul\":1560:1565   */\n      dup4\n        /* \"#utility.yul\":1510:1566   */\n      tag_86\n      jump\t// in\n    tag_85:\n        /* \"#utility.yul\":1589:1596   */\n      dup1\n        /* \"#utility.yul\":1620:1621   */\n      0x00\n        /* \"#utility.yul\":1605:1889   */\n    tag_87:\n        /* \"#utility.yul\":1630:1636   */\n      dup4\n        /* \"#utility.yul\":1627:1628   */\n      dup2\n        /* \"#utility.yul\":1624:1637   */\n      lt\n        /* \"#utility.yul\":1605:1889   */\n      iszero\n      tag_89\n      jumpi\n        /* \"#utility.yul\":1706:1712   */\n      dup2\n        /* \"#utility.yul\":1700:1713   */\n      mload\n        /* \"#utility.yul\":1733:1796   */\n      tag_90\n        /* \"#utility.yul\":1792:1795   */\n      dup9\n        /* \"#utility.yul\":1777:1790   */\n      dup3\n        /* \"#utility.yul\":1733:1796   */\n      tag_75\n      jump\t// in\n    tag_90:\n        /* \"#utility.yul\":1726:1796   */\n      swap8\n      pop\n        /* \"#utility.yul\":1819:1879   */\n      tag_91\n        /* \"#utility.yul\":1872:1878   */\n      dup4\n        /* \"#utility.yul\":1819:1879   */\n      tag_92\n      jump\t// in\n    tag_91:\n        /* \"#utility.yul\":1809:1879   */\n      swap3\n      pop\n        /* \"#utility.yul\":1665:1889   */\n      pop\n        /* \"#utility.yul\":1652:1653   */\n      0x01\n        /* \"#utility.yul\":1649:1650   */\n      dup2\n        /* \"#utility.yul\":1645:1654   */\n      add\n        /* \"#utility.yul\":1640:1654   */\n      swap1\n      pop\n        /* \"#utility.yul\":1605:1889   */\n      jump(tag_87)\n    tag_89:\n        /* \"#utility.yul\":1609:1623   */\n      pop\n        /* \"#utility.yul\":1905:1908   */\n      dup6\n        /* \"#utility.yul\":1898:1908   */\n      swap4\n      pop\n        /* \"#utility.yul\":1306:1914   */\n      pop\n      pop\n      pop\n        /* \"#utility.yul\":1182:1914   */\n      swap3\n      swap2\n      pop\n      pop\n      jump\t// out\n        /* \"#utility.yul\":1920:2028   */\n    tag_78:\n        /* \"#utility.yul\":1997:2021   */\n      tag_94\n        /* \"#utility.yul\":2015:2020   */\n      dup2\n        /* \"#utility.yul\":1997:2021   */\n      tag_95\n      jump\t// in\n    tag_94:\n        /* \"#utility.yul\":1992:1995   */\n      dup3\n        /* \"#utility.yul\":1985:2022   */\n      mstore\n        /* \"#utility.yul\":1920:2028   */\n      pop\n      pop\n      jump\t// out\n        /* \"#utility.yul\":2034:2152   */\n    tag_96:\n        /* \"#utility.yul\":2121:2145   */\n      tag_98\n        /* \"#utility.yul\":2139:2144   */\n      dup2\n        /* \"#utility.yul\":2121:2145   */\n      tag_95\n      jump\t// in\n    tag_98:\n        /* \"#utility.yul\":2116:2119   */\n      dup3\n        /* \"#utility.yul\":2109:2146   */\n      mstore\n        /* \"#utility.yul\":2034:2152   */\n      pop\n      pop\n      jump\t// out\n        /* \"#utility.yul\":2158:2531   */\n    tag_27:\n        /* \"#utility.yul\":2301:2305   */\n      0x00\n        /* \"#utility.yul\":2339:2341   */\n      0x20\n        /* \"#utility.yul\":2328:2337   */\n      dup3\n        /* \"#utility.yul\":2324:2342   */\n      add\n        /* \"#utility.yul\":2316:2342   */\n      swap1\n      pop\n        /* \"#utility.yul\":2388:2397   */\n      dup2\n        /* \"#utility.yul\":2382:2386   */\n      dup2\n        /* \"#utility.yul\":2378:2398   */\n      sub\n        /* \"#utility.yul\":2374:2375   */\n      0x00\n        /* \"#utility.yul\":2363:2372   */\n      dup4\n        /* \"#utility.yul\":2359:2376   */\n      add\n        /* \"#utility.yul\":2352:2399   */\n      mstore\n        /* \"#utility.yul\":2416:2524   */\n      tag_100\n        /* \"#utility.yul\":2519:2523   */\n      dup2\n        /* \"#utility.yul\":2510:2516   */\n      dup5\n        /* \"#utility.yul\":2416:2524   */\n      tag_79\n      jump\t// in\n    tag_100:\n        /* \"#utility.yul\":2408:2524   */\n      swap1\n      pop\n        /* \"#utility.yul\":2158:2531   */\n      swap3\n      swap2\n      pop\n      pop\n      jump\t// out\n        /* \"#utility.yul\":2537:2759   */\n    tag_16:\n        /* \"#utility.yul\":2630:2634   */\n      0x00\n        /* \"#utility.yul\":2668:2670   */\n      0x20\n        /* \"#utility.yul\":2657:2666   */\n      dup3\n        /* \"#utility.yul\":2653:2671   */\n      add\n        /* \"#utility.yul\":2645:2671   */\n      swap1\n      pop\n        /* \"#utility.yul\":2681:2752   */\n      tag_102\n        /* \"#utility.yul\":2749:2750   */\n      0x00\n        /* \"#utility.yul\":2738:2747   */\n      dup4\n        /* \"#utility.yul\":2734:2751   */\n      add\n        /* \"#utility.yul\":2725:2731   */\n      dup5\n        /* \"#utility.yul\":2681:2752   */\n      tag_96\n      jump\t// in\n    tag_102:\n        /* \"#utility.yul\":2537:2759   */\n      swap3\n      swap2\n      pop\n      pop\n      jump\t// out\n        /* \"#utility.yul\":2846:2978   */\n    tag_86:\n        /* \"#utility.yul\":2913:2917   */\n      0x00\n        /* \"#utility.yul\":2936:2939   */\n      dup2\n        /* \"#utility.yul\":2928:2939   */\n      swap1\n      pop\n        /* \"#utility.yul\":2966:2970   */\n      0x20\n        /* \"#utility.yul\":2961:2964   */\n      dup3\n        /* \"#utility.yul\":2957:2971   */\n      add\n        /* \"#utility.yul\":2949:2971   */\n      swap1\n      pop\n        /* \"#utility.yul\":2846:2978   */\n      swap2\n      swap1\n      pop\n      jump\t// out\n        /* \"#utility.yul\":2984:3098   */\n    tag_82:\n        /* \"#utility.yul\":3051:3057   */\n      0x00\n        /* \"#utility.yul\":3085:3090   */\n      dup2\n        /* \"#utility.yul\":3079:3091   */\n      mload\n        /* \"#utility.yul\":3069:3091   */\n      swap1\n      pop\n        /* \"#utility.yul\":2984:3098   */\n      swap2\n      swap1\n      pop\n      jump\t// out\n        /* \"#utility.yul\":3104:3217   */\n    tag_92:\n        /* \"#utility.yul\":3174:3178   */\n      0x00\n        /* \"#utility.yul\":3206:3210   */\n      0x20\n        /* \"#utility.yul\":3201:3204   */\n      dup3\n        /* \"#utility.yul\":3197:3211   */\n      add\n        /* \"#utility.yul\":3189:3211   */\n      swap1\n      pop\n        /* \"#utility.yul\":3104:3217   */\n      swap2\n      swap1\n      pop\n      jump\t// out\n        /* \"#utility.yul\":3223:3407   */\n    tag_84:\n        /* \"#utility.yul\":3322:3333   */\n      0x00\n        /* \"#utility.yul\":3356:3362   */\n      dup3\n        /* \"#utility.yul\":3351:3354   */\n      dup3\n        /* \"#utility.yul\":3344:3363   */\n      mstore\n        /* \"#utility.yul\":3396:3400   */\n      0x20\n        /* \"#utility.yul\":3391:3394   */\n      dup3\n        /* \"#utility.yul\":3387:3401   */\n      add\n        /* \"#utility.yul\":3372:3401   */\n      swap1\n      pop\n        /* \"#utility.yul\":3223:3407   */\n      swap3\n      swap2\n      pop\n      pop\n      jump\t// out\n        /* \"#utility.yul\":3413:3761   */\n    tag_55:\n        /* \"#utility.yul\":3453:3460   */\n      0x00\n        /* \"#utility.yul\":3476:3496   */\n      tag_110\n        /* \"#utility.yul\":3494:3495   */\n      dup3\n        /* \"#utility.yul\":3476:3496   */\n      tag_95\n      jump\t// in\n    tag_110:\n        /* \"#utility.yul\":3471:3496   */\n      swap2\n      pop\n        /* \"#utility.yul\":3510:3530   */\n      tag_111\n        /* \"#utility.yul\":3528:3529   */\n      dup4\n        /* \"#utility.yul\":3510:3530   */\n      tag_95\n      jump\t// in\n    tag_111:\n        /* \"#utility.yul\":3505:3530   */\n      swap3\n      pop\n        /* \"#utility.yul\":3698:3699   */\n      dup2\n        /* \"#utility.yul\":3630:3696   */\n      0xffffffffffffffffffffffffffffffffffffffffffffffffffffffffffffffff\n        /* \"#utility.yul\":3626:3700   */\n      div\n        /* \"#utility.yul\":3623:3624   */\n      dup4\n        /* \"#utility.yul\":3620:3701   */\n      gt\n        /* \"#utility.yul\":3615:3616   */\n      dup3\n        /* \"#utility.yul\":3608:3617   */\n      iszero\n        /* \"#utility.yul\":3601:3618   */\n      iszero\n        /* \"#utility.yul\":3597:3702   */\n      and\n        /* \"#utility.yul\":3594:3725   */\n      iszero\n      tag_112\n      jumpi\n        /* \"#utility.yul\":3705:3723   */\n      tag_113\n      tag_114\n      jump\t// in\n    tag_113:\n        /* \"#utility.yul\":3594:3725   */\n    tag_112:\n        /* \"#utility.yul\":3753:3754   */\n      dup3\n        /* \"#utility.yul\":3750:3751   */\n      dup3\n        /* \"#utility.yul\":3746:3755   */\n      mul\n        /* \"#utility.yul\":3735:3755   */\n      swap1\n      pop\n        /* \"#utility.yul\":3413:3761   */\n      swap3\n      swap2\n      pop\n      pop\n      jump\t// out\n        /* \"#utility.yul\":3767:3844   */\n    tag_95:\n        /* \"#utility.yul\":3804:3811   */\n      0x00\n        /* \"#utility.yul\":3833:3838   */\n      dup2\n        /* \"#utility.yul\":3822:3838   */\n      swap1\n      pop\n        /* \"#utility.yul\":3767:3844   */\n      swap2\n      swap1\n      pop\n      jump\t// out\n        /* \"#utility.yul\":3850:4083   */\n    tag_59:\n        /* \"#utility.yul\":3889:3892   */\n      0x00\n        /* \"#utility.yul\":3912:3936   */\n      tag_117\n        /* \"#utility.yul\":3930:3935   */\n      dup3\n        /* \"#utility.yul\":3912:3936   */\n      tag_95\n      jump\t// in\n    tag_117:\n        /* \"#utility.yul\":3903:3936   */\n      swap2\n      pop\n        /* \"#utility.yul\":3958:4024   */\n      0xffffffffffffffffffffffffffffffffffffffffffffffffffffffffffffffff\n        /* \"#utility.yul\":3951:3956   */\n      dup3\n        /* \"#utility.yul\":3948:4025   */\n      eq\n        /* \"#utility.yul\":3945:4048   */\n      iszero\n      tag_118\n      jumpi\n        /* \"#utility.yul\":4028:4046   */\n      tag_119\n      tag_114\n      jump\t// in\n    tag_119:\n        /* \"#utility.yul\":3945:4048   */\n    tag_118:\n        /* \"#utility.yul\":4075:4076   */\n      0x01\n        /* \"#utility.yul\":4068:4073   */\n      dup3\n        /* \"#utility.yul\":4064:4077   */\n      add\n        /* \"#utility.yul\":4057:4077   */\n      swap1\n      pop\n        /* \"#utility.yul\":3850:4083   */\n      swap2\n      swap1\n      pop\n      jump\t// out\n        /* \"#utility.yul\":4089:4269   */\n    tag_114:\n        /* \"#utility.yul\":4137:4214   */\n      0x4e487b7100000000000000000000000000000000000000000000000000000000\n        /* \"#utility.yul\":4134:4135   */\n      0x00\n        /* \"#utility.yul\":4127:4215   */\n      mstore\n        /* \"#utility.yul\":4234:4238   */\n      0x11\n        /* \"#utility.yul\":4231:4232   */\n      0x04\n        /* \"#utility.yul\":4224:4239   */\n      mstore\n        /* \"#utility.yul\":4258:4262   */\n      0x24\n        /* \"#utility.yul\":4255:4256   */\n      0x00\n        /* \"#utility.yul\":4248:4263   */\n      revert\n        /* \"#utility.yul\":4275:4455   */\n    tag_31:\n        /* \"#utility.yul\":4323:4400   */\n      0x4e487b7100000000000000000000000000000000000000000000000000000000\n        /* \"#utility.yul\":4320:4321   */\n      0x00\n        /* \"#utility.yul\":4313:4401   */\n      mstore\n        /* \"#utility.yul\":4420:4424   */\n      0x32\n        /* \"#utility.yul\":4417:4418   */\n      0x04\n        /* \"#utility.yul\":4410:4425   */\n      mstore\n        /* \"#utility.yul\":4444:4448   */\n      0x24\n        /* \"#utility.yul\":4441:4442   */\n      0x00\n        /* \"#utility.yul\":4434:4449   */\n      revert\n        /* \"#utility.yul\":4461:4641   */\n    tag_46:\n        /* \"#utility.yul\":4509:4586   */\n      0x4e487b7100000000000000000000000000000000000000000000000000000000\n        /* \"#utility.yul\":4506:4507   */\n      0x00\n        /* \"#utility.yul\":4499:4587   */\n      mstore\n        /* \"#utility.yul\":4606:4610   */\n      0x41\n        /* \"#utility.yul\":4603:4604   */\n      0x04\n        /* \"#utility.yul\":4596:4611   */\n      mstore\n        /* \"#utility.yul\":4630:4634   */\n      0x24\n        /* \"#utility.yul\":4627:4628   */\n      0x00\n        /* \"#utility.yul\":4620:4635   */\n      revert\n        /* \"#utility.yul\":4770:4887   */\n    tag_68:\n        /* \"#utility.yul\":4879:4880   */\n      0x00\n        /* \"#utility.yul\":4876:4877   */\n      dup1\n        /* \"#utility.yul\":4869:4881   */\n      revert\n        /* \"#utility.yul\":4893:5015   */\n    tag_64:\n        /* \"#utility.yul\":4966:4990   */\n      tag_127\n        /* \"#utility.yul\":4984:4989   */\n      dup2\n        /* \"#utility.yul\":4966:4990   */\n      tag_95\n      jump\t// in\n    tag_127:\n        /* \"#utility.yul\":4959:4964   */\n      dup2\n        /* \"#utility.yul\":4956:4991   */\n      eq\n        /* \"#utility.yul\":4946:5009   */\n      tag_128\n      jumpi\n        /* \"#utility.yul\":5005:5006   */\n      0x00\n        /* \"#utility.yul\":5002:5003   */\n      dup1\n        /* \"#utility.yul\":4995:5007   */\n      revert\n        /* \"#utility.yul\":4946:5009   */\n    tag_128:\n        /* \"#utility.yul\":4893:5015   */\n      pop\n      jump\t// out\n\n    auxdata: 0xa26469706673582212208046d60566a4318679b2d174362763c6fb5b0bf7f7b47ad79975d171f6dc718d64736f6c63430008070033\n}\n",
				"bytecode": {
					"linkReferences": {},
					"object": "608060405234801561001057600080fd5b5061057e806100206000396000f3fe608060405234801561001057600080fd5b50600436106100575760003560e01c80630cf3dfd91461005c5780630ff4c916146100785780635b500826146100a85780635b9af12b146100c45780638d52b3fd146100e0575b600080fd5b6100766004803603810190610071919061027b565b6100fe565b005b610092600480360381019061008d919061027b565b610123565b60405161009f919061039e565b60405180910390f35b6100c260048036038101906100bd91906102a8565b61014a565b005b6100de60048036038101906100d9919061027b565b610171565b005b6100e861019d565b6040516100f5919061037c565b60405180910390f35b60008181548110610112576101116104ce565b5b906000526020600020016000905550565b6000808281548110610138576101376104ce565b5b90600052602060002001549050919050565b806000838154811061015f5761015e6104ce565b5b90600052602060002001819055505050565b600081908060018154018082558091505060019003906000526020600020016000909190919091505550565b606060008080549050905060008167ffffffffffffffff8111156101c4576101c36104fd565b5b6040519080825280602002602001820160405280156101f25781602001602082028036833780820191505090505b50905060005b8281101561025d57600260008281548110610216576102156104ce565b5b906000526020600020015461022b91906103f2565b82828151811061023e5761023d6104ce565b5b602002602001018181525050808061025590610456565b9150506101f8565b50809250505090565b60008135905061027581610531565b92915050565b6000602082840312156102915761029061052c565b5b600061029f84828501610266565b91505092915050565b600080604083850312156102bf576102be61052c565b5b60006102cd85828601610266565b92505060206102de85828601610266565b9150509250929050565b60006102f4838361035e565b60208301905092915050565b600061030b826103c9565b61031581856103e1565b9350610320836103b9565b8060005b8381101561035157815161033888826102e8565b9750610343836103d4565b925050600181019050610324565b5085935050505092915050565b6103678161044c565b82525050565b6103768161044c565b82525050565b600060208201905081810360008301526103968184610300565b905092915050565b60006020820190506103b3600083018461036d565b92915050565b6000819050602082019050919050565b600081519050919050565b6000602082019050919050565b600082825260208201905092915050565b60006103fd8261044c565b91506104088361044c565b9250817fffffffffffffffffffffffffffffffffffffffffffffffffffffffffffffffff04831182151516156104415761044061049f565b5b828202905092915050565b6000819050919050565b60006104618261044c565b91507fffffffffffffffffffffffffffffffffffffffffffffffffffffffffffffffff8214156104945761049361049f565b5b600182019050919050565b7f4e487b7100000000000000000000000000000000000000000000000000000000600052601160045260246000fd5b7f4e487b7100000000000000000000000000000000000000000000000000000000600052603260045260246000fd5b7f4e487b7100000000000000000000000000000000000000000000000000000000600052604160045260246000fd5b600080fd5b61053a8161044c565b811461054557600080fd5b5056fea26469706673582212208046d60566a4318679b2d174362763c6fb5b0bf7f7b47ad79975d171f6dc718d64736f6c63430008070033",
					"opcodes": "PUSH1 0x80 PUSH1 0x40 MSTORE CALLVALUE DUP1 ISZERO PUSH2 0x10 JUMPI PUSH1 0x0 DUP1 REVERT JUMPDEST POP PUSH2 0x57E DUP1 PUSH2 0x20 PUSH1 0x0 CODECOPY PUSH1 0x0 RETURN INVALID PUSH1 0x80 PUSH1 0x40 MSTORE CALLVALUE DUP1 ISZERO PUSH2 0x10 JUMPI PUSH1 0x0 DUP1 REVERT JUMPDEST POP PUSH1 0x4 CALLDATASIZE LT PUSH2 0x57 JUMPI PUSH1 0x0 CALLDATALOAD PUSH1 0xE0 SHR DUP1 PUSH4 0xCF3DFD9 EQ PUSH2 0x5C JUMPI DUP1 PUSH4 0xFF4C916 EQ PUSH2 0x78 JUMPI DUP1 PUSH4 0x5B500826 EQ PUSH2 0xA8 JUMPI DUP1 PUSH4 0x5B9AF12B EQ PUSH2 0xC4 JUMPI DUP1 PUSH4 0x8D52B3FD EQ PUSH2 0xE0 JUMPI JUMPDEST PUSH1 0x0 DUP1 REVERT JUMPDEST PUSH2 0x76 PUSH1 0x4 DUP1 CALLDATASIZE SUB DUP2 ADD SWAP1 PUSH2 0x71 SWAP2 SWAP1 PUSH2 0x27B JUMP JUMPDEST PUSH2 0xFE JUMP JUMPDEST STOP JUMPDEST PUSH2 0x92 PUSH1 0x4 DUP1 CALLDATASIZE SUB DUP2 ADD SWAP1 PUSH2 0x8D SWAP2 SWAP1 PUSH2 0x27B JUMP JUMPDEST PUSH2 0x123 JUMP JUMPDEST PUSH1 0x40 MLOAD PUSH2 0x9F SWAP2 SWAP1 PUSH2 0x39E JUMP JUMPDEST PUSH1 0x40 MLOAD DUP1 SWAP2 SUB SWAP1 RETURN JUMPDEST PUSH2 0xC2 PUSH1 0x4 DUP1 CALLDATASIZE SUB DUP2 ADD SWAP1 PUSH2 0xBD SWAP2 SWAP1 PUSH2 0x2A8 JUMP JUMPDEST PUSH2 0x14A JUMP JUMPDEST STOP JUMPDEST PUSH2 0xDE PUSH1 0x4 DUP1 CALLDATASIZE SUB DUP2 ADD SWAP1 PUSH2 0xD9 SWAP2 SWAP1 PUSH2 0x27B JUMP JUMPDEST PUSH2 0x171 JUMP JUMPDEST STOP JUMPDEST PUSH2 0xE8 PUSH2 0x19D JUMP JUMPDEST PUSH1 0x40 MLOAD PUSH2 0xF5 SWAP2 SWAP1 PUSH2 0x37C JUMP JUMPDEST PUSH1 0x40 MLOAD DUP1 SWAP2 SUB SWAP1 RETURN JUMPDEST PUSH1 0x0 DUP2 DUP2 SLOAD DUP2 LT PUSH2 0x112 JUMPI PUSH2 0x111 PUSH2 0x4CE JUMP JUMPDEST JUMPDEST SWAP1 PUSH1 0x0 MSTORE PUSH1 0x20 PUSH1 0x0 KECCAK256 ADD PUSH1 0x0 SWAP1 SSTORE POP JUMP JUMPDEST PUSH1 0x0 DUP1 DUP3 DUP2 SLOAD DUP2 LT PUSH2 0x138 JUMPI PUSH2 0x137 PUSH2 0x4CE JUMP JUMPDEST JUMPDEST SWAP1 PUSH1 0x0 MSTORE PUSH1 0x20 PUSH1 0x0 KECCAK256 ADD SLOAD SWAP1 POP SWAP2 SWAP1 POP JUMP JUMPDEST DUP1 PUSH1 0x0 DUP4 DUP2 SLOAD DUP2 LT PUSH2 0x15F JUMPI PUSH2 0x15E PUSH2 0x4CE JUMP JUMPDEST JUMPDEST SWAP1 PUSH1 0x0 MSTORE PUSH1 0x20 PUSH1 0x0 KECCAK256 ADD DUP2 SWAP1 SSTORE POP POP POP JUMP JUMPDEST PUSH1 0x0 DUP2 SWAP1 DUP1 PUSH1 0x1 DUP2 SLOAD ADD DUP1 DUP3 SSTORE DUP1 SWAP2 POP POP PUSH1 0x1 SWAP1 SUB SWAP1 PUSH1 0x0 MSTORE PUSH1 0x20 PUSH1 0x0 KECCAK256 ADD PUSH1 0x0 SWAP1 SWAP2 SWAP1 SWAP2 SWAP1 SWAP2 POP SSTORE POP JUMP JUMPDEST PUSH1 0x60 PUSH1 0x0 DUP1 DUP1 SLOAD SWAP1 POP SWAP1 POP PUSH1 0x0 DUP2 PUSH8 0xFFFFFFFFFFFFFFFF DUP2 GT ISZERO PUSH2 0x1C4 JUMPI PUSH2 0x1C3 PUSH2 0x4FD JUMP JUMPDEST JUMPDEST PUSH1 0x40 MLOAD SWAP1 DUP1 DUP3 MSTORE DUP1 PUSH1 0x20 MUL PUSH1 0x20 ADD DUP3 ADD PUSH1 0x40 MSTORE DUP1 ISZERO PUSH2 0x1F2 JUMPI DUP2 PUSH1 0x20 ADD PUSH1 0x20 DUP3 MUL DUP1 CALLDATASIZE DUP4 CALLDATACOPY DUP1 DUP3 ADD SWAP2 POP POP SWAP1 POP JUMPDEST POP SWAP1 POP PUSH1 0x0 JUMPDEST DUP3 DUP2 LT ISZERO PUSH2 0x25D JUMPI PUSH1 0x2 PUSH1 0x0 DUP3 DUP2 SLOAD DUP2 LT PUSH2 0x216 JUMPI PUSH2 0x215 PUSH2 0x4CE JUMP JUMPDEST JUMPDEST SWAP1 PUSH1 0x0 MSTORE PUSH1 0x20 PUSH1 0x0 KECCAK256 ADD SLOAD PUSH2 0x22B SWAP2 SWAP1 PUSH2 0x3F2 JUMP JUMPDEST DUP3 DUP3 DUP2 MLOAD DUP2 LT PUSH2 0x23E JUMPI PUSH2 0x23D PUSH2 0x4CE JUMP JUMPDEST JUMPDEST PUSH1 0x20 MUL PUSH1 0x20 ADD ADD DUP2 DUP2 MSTORE POP POP DUP1 DUP1 PUSH2 0x255 SWAP1 PUSH2 0x456 JUMP JUMPDEST SWAP2 POP POP PUSH2 0x1F8 JUMP JUMPDEST POP DUP1 SWAP3 POP POP POP SWAP1 JUMP JUMPDEST PUSH1 0x0 DUP2 CALLDATALOAD SWAP1 POP PUSH2 0x275 DUP2 PUSH2 0x531 JUMP JUMPDEST SWAP3 SWAP2 POP POP JUMP JUMPDEST PUSH1 0x0 PUSH1 0x20 DUP3 DUP5 SUB SLT ISZERO PUSH2 0x291 JUMPI PUSH2 0x290 PUSH2 0x52C JUMP JUMPDEST JUMPDEST PUSH1 0x0 PUSH2 0x29F DUP5 DUP3 DUP6 ADD PUSH2 0x266 JUMP JUMPDEST SWAP2 POP POP SWAP3 SWAP2 POP POP JUMP JUMPDEST PUSH1 0x0 DUP1 PUSH1 0x40 DUP4 DUP6 SUB SLT ISZERO PUSH2 0x2BF JUMPI PUSH2 0x2BE PUSH2 0x52C JUMP JUMPDEST JUMPDEST PUSH1 0x0 PUSH2 0x2CD DUP6 DUP3 DUP7 ADD PUSH2 0x266 JUMP JUMPDEST SWAP3 POP POP PUSH1 0x20 PUSH2 0x2DE DUP6 DUP3 DUP7 ADD PUSH2 0x266 JUMP JUMPDEST SWAP2 POP POP SWAP3 POP SWAP3 SWAP1 POP JUMP JUMPDEST PUSH1 0x0 PUSH2 0x2F4 DUP4 DUP4 PUSH2 0x35E JUMP JUMPDEST PUSH1 0x20 DUP4 ADD SWAP1 POP SWAP3 SWAP2 POP POP JUMP JUMPDEST PUSH1 0x0 PUSH2 0x30B DUP3 PUSH2 0x3C9 JUMP JUMPDEST PUSH2 0x315 DUP2 DUP6 PUSH2 0x3E1 JUMP JUMPDEST SWAP4 POP PUSH2 0x320 DUP4 PUSH2 0x3B9 JUMP JUMPDEST DUP1 PUSH1 0x0 JUMPDEST DUP4 DUP2 LT ISZERO PUSH2 0x351 JUMPI DUP2 MLOAD PUSH2 0x338 DUP9 DUP3 PUSH2 0x2E8 JUMP JUMPDEST SWAP8 POP PUSH2 0x343 DUP4 PUSH2 0x3D4 JUMP JUMPDEST SWAP3 POP POP PUSH1 0x1 DUP2 ADD SWAP1 POP PUSH2 0x324 JUMP JUMPDEST POP DUP6 SWAP4 POP POP POP POP SWAP3 SWAP2 POP POP JUMP JUMPDEST PUSH2 0x367 DUP2 PUSH2 0x44C JUMP JUMPDEST DUP3 MSTORE POP POP JUMP JUMPDEST PUSH2 0x376 DUP2 PUSH2 0x44C JUMP JUMPDEST DUP3 MSTORE POP POP JUMP JUMPDEST PUSH1 0x0 PUSH1 0x20 DUP3 ADD SWAP1 POP DUP2 DUP2 SUB PUSH1 0x0 DUP4 ADD MSTORE PUSH2 0x396 DUP2 DUP5 PUSH2 0x300 JUMP JUMPDEST SWAP1 POP SWAP3 SWAP2 POP POP JUMP JUMPDEST PUSH1 0x0 PUSH1 0x20 DUP3 ADD SWAP1 POP PUSH2 0x3B3 PUSH1 0x0 DUP4 ADD DUP5 PUSH2 0x36D JUMP JUMPDEST SWAP3 SWAP2 POP POP JUMP JUMPDEST PUSH1 0x0 DUP2 SWAP1 POP PUSH1 0x20 DUP3 ADD SWAP1 POP SWAP2 SWAP1 POP JUMP JUMPDEST PUSH1 0x0 DUP2 MLOAD SWAP1 POP SWAP2 SWAP1 POP JUMP JUMPDEST PUSH1 0x0 PUSH1 0x20 DUP3 ADD SWAP1 POP SWAP2 SWAP1 POP JUMP JUMPDEST PUSH1 0x0 DUP3 DUP3 MSTORE PUSH1 0x20 DUP3 ADD SWAP1 POP SWAP3 SWAP2 POP POP JUMP JUMPDEST PUSH1 0x0 PUSH2 0x3FD DUP3 PUSH2 0x44C JUMP JUMPDEST SWAP2 POP PUSH2 0x408 DUP4 PUSH2 0x44C JUMP JUMPDEST SWAP3 POP DUP2 PUSH32 0xFFFFFFFFFFFFFFFFFFFFFFFFFFFFFFFFFFFFFFFFFFFFFFFFFFFFFFFFFFFFFFFF DIV DUP4 GT DUP3 ISZERO ISZERO AND ISZERO PUSH2 0x441 JUMPI PUSH2 0x440 PUSH2 0x49F JUMP JUMPDEST JUMPDEST DUP3 DUP3 MUL SWAP1 POP SWAP3 SWAP2 POP POP JUMP JUMPDEST PUSH1 0x0 DUP2 SWAP1 POP SWAP2 SWAP1 POP JUMP JUMPDEST PUSH1 0x0 PUSH2 0x461 DUP3 PUSH2 0x44C JUMP JUMPDEST SWAP2 POP PUSH32 0xFFFFFFFFFFFFFFFFFFFFFFFFFFFFFFFFFFFFFFFFFFFFFFFFFFFFFFFFFFFFFFFF DUP3 EQ ISZERO PUSH2 0x494 JUMPI PUSH2 0x493 PUSH2 0x49F JUMP JUMPDEST JUMPDEST PUSH1 0x1 DUP3 ADD SWAP1 POP SWAP2 SWAP1 POP JUMP JUMPDEST PUSH32 0x4E487B7100000000000000000000000000000000000000000000000000000000 PUSH1 0x0 MSTORE PUSH1 0x11 PUSH1 0x4 MSTORE PUSH1 0x24 PUSH1 0x0 REVERT JUMPDEST PUSH32 0x4E487B7100000000000000000000000000000000000000000000000000000000 PUSH1 0x0 MSTORE PUSH1 0x32 PUSH1 0x4 MSTORE PUSH1 0x24 PUSH1 0x0 REVERT JUMPDEST PUSH32 0x4E487B7100000000000000000000000000000000000000000000000000000000 PUSH1 0x0 MSTORE PUSH1 0x41 PUSH1 0x4 MSTORE PUSH1 0x24 PUSH1 0x0 REVERT JUMPDEST PUSH1 0x0 DUP1 REVERT JUMPDEST PUSH2 0x53A DUP2 PUSH2 0x44C JUMP JUMPDEST DUP2 EQ PUSH2 0x545 JUMPI PUSH1 0x0 DUP1 REVERT JUMPDEST POP JUMP INVALID LOG2 PUSH5 0x6970667358 0x22 SLT KECCAK256 DUP1 CHAINID 0xD6 SDIV PUSH7 0xA4318679B2D174 CALLDATASIZE 0x27 PUSH4 0xC6FB5B0B 0xF7 0xF7 0xB4 PUSH27 0xD79975D171F6DC718D64736F6C6343000807003300000000000000 "
				},
				"gasEstimates": {
					"creation": {
						"codeDepositCost": "281200",
						"executionCost": "318",
						"totalCost": "281518"
					},
					"external": {
						"addValue(uint256)": "46873",
						"deleteValue(uint256)": "7573",
						"getNbx2()": "infinite",
						"getValue(uint256)": "infinite",
						"updateValue(uint256,uint256)": "infinite"
					}
				},
				"methodIdentifiers": {
					"addValue(uint256)": "5b9af12b",
					"deleteValue(uint256)": "0cf3dfd9",
					"getNbx2()": "8d52b3fd",
					"getValue(uint256)": "0ff4c916",
					"updateValue(uint256,uint256)": "5b500826"
				}
			},
			"storageLayout": {
				"storage": [
					{
						"astId": 4,
						"contract": "contracts/arrays.sol:Arrays",
						"label": "nombre",
						"offset": 0,
						"slot": "0",
						"type": "t_array(t_uint256)dyn_storage"
					}
				],
				"types": {
					"t_array(t_uint256)dyn_storage": {
						"base": "t_uint256",
						"encoding": "dynamic_array",
						"label": "uint256[]",
						"numberOfBytes": "32"
					},
					"t_uint256": {
						"encoding": "inplace",
						"label": "uint256",
						"numberOfBytes": "32"
					}
				}
			},
			"userdoc": {
				"kind": "user",
				"methods": {},
				"version": 1
			}
		}
	}
}