{
	"contracts/test.sol": {
		"test": {
			"abi": [
				{
					"inputs": [],
					"name": "getMontant",
					"outputs": [
						{
							"internalType": "uint256",
							"name": "",
							"type": "uint256"
						}
					],
					"stateMutability": "view",
					"type": "function"
				},
				{
					"inputs": [],
					"name": "getTotalMontant",
					"outputs": [
						{
							"internalType": "uint256",
							"name": "",
							"type": "uint256"
						}
					],
					"stateMutability": "view",
					"type": "function"
				},
				{
					"stateMutability": "payable",
					"type": "receive"
				}
			],
			"devdoc": {
				"kind": "dev",
				"methods": {},
				"version": 1
			},
			"evm": {
				"assembly": "    /* \"contracts/test.sol\":111:826  contract test {\r... */\n  mstore(0x40, 0x80)\n  callvalue\n  dup1\n  iszero\n  tag_1\n  jumpi\n  0x00\n  dup1\n  revert\ntag_1:\n  pop\n  dataSize(sub_0)\n  dup1\n  dataOffset(sub_0)\n  0x00\n  codecopy\n  0x00\n  return\nstop\n\nsub_0: assembly {\n        /* \"contracts/test.sol\":111:826  contract test {\r... */\n      mstore(0x40, 0x80)\n      jumpi(tag_1, lt(calldatasize, 0x04))\n      shr(0xe0, calldataload(0x00))\n      dup1\n      0x06c26f75\n      eq\n      tag_3\n      jumpi\n      dup1\n      0x18394a56\n      eq\n      tag_4\n      jumpi\n      jump(tag_2)\n    tag_1:\n      jumpi(tag_2, calldatasize)\n        /* \"contracts/test.sol\":754:763  msg.value */\n      callvalue\n        /* \"contracts/test.sol\":723:730  Wallets */\n      0x00\n        /* \"contracts/test.sol\":723:742  Wallets[msg.sender] */\n      dup1\n        /* \"contracts/test.sol\":731:741  msg.sender */\n      caller\n        /* \"contracts/test.sol\":723:742  Wallets[msg.sender] */\n      0xffffffffffffffffffffffffffffffffffffffff\n      and\n      0xffffffffffffffffffffffffffffffffffffffff\n      and\n      dup2\n      mstore\n      0x20\n      add\n      swap1\n      dup2\n      mstore\n      0x20\n      add\n      0x00\n      keccak256\n        /* \"contracts/test.sol\":723:750  Wallets[msg.sender].balance */\n      0x00\n      add\n      0x00\n        /* \"contracts/test.sol\":723:763  Wallets[msg.sender].balance += msg.value */\n      dup3\n      dup3\n      sload\n      tag_7\n      swap2\n      swap1\n      tag_8\n      jump\t// in\n    tag_7:\n      swap3\n      pop\n      pop\n      dup2\n      swap1\n      sstore\n      pop\n        /* \"contracts/test.sol\":774:781  Wallets */\n      0x00\n        /* \"contracts/test.sol\":774:793  Wallets[msg.sender] */\n      dup1\n        /* \"contracts/test.sol\":782:792  msg.sender */\n      caller\n        /* \"contracts/test.sol\":774:793  Wallets[msg.sender] */\n      0xffffffffffffffffffffffffffffffffffffffff\n      and\n      0xffffffffffffffffffffffffffffffffffffffff\n      and\n      dup2\n      mstore\n      0x20\n      add\n      swap1\n      dup2\n      mstore\n      0x20\n      add\n      0x00\n      keccak256\n        /* \"contracts/test.sol\":774:805  Wallets[msg.sender].nbPayements */\n      0x01\n      add\n      0x00\n        /* \"contracts/test.sol\":774:807  Wallets[msg.sender].nbPayements++ */\n      dup2\n      sload\n      dup1\n      swap3\n      swap2\n      swap1\n      tag_9\n      swap1\n      tag_10\n      jump\t// in\n    tag_9:\n      swap2\n      swap1\n      pop\n      sstore\n      pop\n        /* \"contracts/test.sol\":111:826  contract test {\r... */\n      stop\n    tag_2:\n      0x00\n      dup1\n      revert\n        /* \"contracts/test.sol\":258:357  function getTotalMontant() public view returns(uint){\r... */\n    tag_3:\n      callvalue\n      dup1\n      iszero\n      tag_11\n      jumpi\n      0x00\n      dup1\n      revert\n    tag_11:\n      pop\n      tag_12\n      tag_13\n      jump\t// in\n    tag_12:\n      mload(0x40)\n      tag_14\n      swap2\n      swap1\n      tag_15\n      jump\t// in\n    tag_14:\n      mload(0x40)\n      dup1\n      swap2\n      sub\n      swap1\n      return\n        /* \"contracts/test.sol\":365:465  function getMontant() public view returns(uint){\r... */\n    tag_4:\n      callvalue\n      dup1\n      iszero\n      tag_16\n      jumpi\n      0x00\n      dup1\n      revert\n    tag_16:\n      pop\n      tag_17\n      tag_18\n      jump\t// in\n    tag_17:\n      mload(0x40)\n      tag_19\n      swap2\n      swap1\n      tag_15\n      jump\t// in\n    tag_19:\n      mload(0x40)\n      dup1\n      swap2\n      sub\n      swap1\n      return\n        /* \"contracts/test.sol\":258:357  function getTotalMontant() public view returns(uint){\r... */\n    tag_13:\n        /* \"contracts/test.sol\":305:309  uint */\n      0x00\n        /* \"contracts/test.sol\":328:349  address(this).balance */\n      selfbalance\n        /* \"contracts/test.sol\":321:349  return address(this).balance */\n      swap1\n      pop\n        /* \"contracts/test.sol\":258:357  function getTotalMontant() public view returns(uint){\r... */\n      swap1\n      jump\t// out\n        /* \"contracts/test.sol\":365:465  function getMontant() public view returns(uint){\r... */\n    tag_18:\n        /* \"contracts/test.sol\":407:411  uint */\n      0x00\n        /* \"contracts/test.sol\":430:437  Wallets */\n      dup1\n        /* \"contracts/test.sol\":430:449  Wallets[msg.sender] */\n      0x00\n        /* \"contracts/test.sol\":438:448  msg.sender */\n      caller\n        /* \"contracts/test.sol\":430:449  Wallets[msg.sender] */\n      0xffffffffffffffffffffffffffffffffffffffff\n      and\n      0xffffffffffffffffffffffffffffffffffffffff\n      and\n      dup2\n      mstore\n      0x20\n      add\n      swap1\n      dup2\n      mstore\n      0x20\n      add\n      0x00\n      keccak256\n        /* \"contracts/test.sol\":430:457  Wallets[msg.sender].balance */\n      0x00\n      add\n      sload\n        /* \"contracts/test.sol\":423:457  return Wallets[msg.sender].balance */\n      swap1\n      pop\n        /* \"contracts/test.sol\":365:465  function getMontant() public view returns(uint){\r... */\n      swap1\n      jump\t// out\n        /* \"#utility.yul\":7:125   */\n    tag_23:\n        /* \"#utility.yul\":94:118   */\n      tag_25\n        /* \"#utility.yul\":112:117   */\n      dup2\n        /* \"#utility.yul\":94:118   */\n      tag_26\n      jump\t// in\n    tag_25:\n        /* \"#utility.yul\":89:92   */\n      dup3\n        /* \"#utility.yul\":82:119   */\n      mstore\n        /* \"#utility.yul\":7:125   */\n      pop\n      pop\n      jump\t// out\n        /* \"#utility.yul\":131:353   */\n    tag_15:\n        /* \"#utility.yul\":224:228   */\n      0x00\n        /* \"#utility.yul\":262:264   */\n      0x20\n        /* \"#utility.yul\":251:260   */\n      dup3\n        /* \"#utility.yul\":247:265   */\n      add\n        /* \"#utility.yul\":239:265   */\n      swap1\n      pop\n        /* \"#utility.yul\":275:346   */\n      tag_28\n        /* \"#utility.yul\":343:344   */\n      0x00\n        /* \"#utility.yul\":332:341   */\n      dup4\n        /* \"#utility.yul\":328:345   */\n      add\n        /* \"#utility.yul\":319:325   */\n      dup5\n        /* \"#utility.yul\":275:346   */\n      tag_23\n      jump\t// in\n    tag_28:\n        /* \"#utility.yul\":131:353   */\n      swap3\n      swap2\n      pop\n      pop\n      jump\t// out\n        /* \"#utility.yul\":359:664   */\n    tag_8:\n        /* \"#utility.yul\":399:402   */\n      0x00\n        /* \"#utility.yul\":418:438   */\n      tag_30\n        /* \"#utility.yul\":436:437   */\n      dup3\n        /* \"#utility.yul\":418:438   */\n      tag_26\n      jump\t// in\n    tag_30:\n        /* \"#utility.yul\":413:438   */\n      swap2\n      pop\n        /* \"#utility.yul\":452:472   */\n      tag_31\n        /* \"#utility.yul\":470:471   */\n      dup4\n        /* \"#utility.yul\":452:472   */\n      tag_26\n      jump\t// in\n    tag_31:\n        /* \"#utility.yul\":447:472   */\n      swap3\n      pop\n        /* \"#utility.yul\":606:607   */\n      dup3\n        /* \"#utility.yul\":538:604   */\n      0xffffffffffffffffffffffffffffffffffffffffffffffffffffffffffffffff\n        /* \"#utility.yul\":534:608   */\n      sub\n        /* \"#utility.yul\":531:532   */\n      dup3\n        /* \"#utility.yul\":528:609   */\n      gt\n        /* \"#utility.yul\":525:632   */\n      iszero\n      tag_32\n      jumpi\n        /* \"#utility.yul\":612:630   */\n      tag_33\n      tag_34\n      jump\t// in\n    tag_33:\n        /* \"#utility.yul\":525:632   */\n    tag_32:\n        /* \"#utility.yul\":656:657   */\n      dup3\n        /* \"#utility.yul\":653:654   */\n      dup3\n        /* \"#utility.yul\":649:658   */\n      add\n        /* \"#utility.yul\":642:658   */\n      swap1\n      pop\n        /* \"#utility.yul\":359:664   */\n      swap3\n      swap2\n      pop\n      pop\n      jump\t// out\n        /* \"#utility.yul\":670:747   */\n    tag_26:\n        /* \"#utility.yul\":707:714   */\n      0x00\n        /* \"#utility.yul\":736:741   */\n      dup2\n        /* \"#utility.yul\":725:741   */\n      swap1\n      pop\n        /* \"#utility.yul\":670:747   */\n      swap2\n      swap1\n      pop\n      jump\t// out\n        /* \"#utility.yul\":753:986   */\n    tag_10:\n        /* \"#utility.yul\":792:795   */\n      0x00\n        /* \"#utility.yul\":815:839   */\n      tag_37\n        /* \"#utility.yul\":833:838   */\n      dup3\n        /* \"#utility.yul\":815:839   */\n      tag_26\n      jump\t// in\n    tag_37:\n        /* \"#utility.yul\":806:839   */\n      swap2\n      pop\n        /* \"#utility.yul\":861:927   */\n      0xffffffffffffffffffffffffffffffffffffffffffffffffffffffffffffffff\n        /* \"#utility.yul\":854:859   */\n      dup3\n        /* \"#utility.yul\":851:928   */\n      eq\n        /* \"#utility.yul\":848:951   */\n      iszero\n      tag_38\n      jumpi\n        /* \"#utility.yul\":931:949   */\n      tag_39\n      tag_34\n      jump\t// in\n    tag_39:\n        /* \"#utility.yul\":848:951   */\n    tag_38:\n        /* \"#utility.yul\":978:979   */\n      0x01\n        /* \"#utility.yul\":971:976   */\n      dup3\n        /* \"#utility.yul\":967:980   */\n      add\n        /* \"#utility.yul\":960:980   */\n      swap1\n      pop\n        /* \"#utility.yul\":753:986   */\n      swap2\n      swap1\n      pop\n      jump\t// out\n        /* \"#utility.yul\":992:1172   */\n    tag_34:\n        /* \"#utility.yul\":1040:1117   */\n      0x4e487b7100000000000000000000000000000000000000000000000000000000\n        /* \"#utility.yul\":1037:1038   */\n      0x00\n        /* \"#utility.yul\":1030:1118   */\n      mstore\n        /* \"#utility.yul\":1137:1141   */\n      0x11\n        /* \"#utility.yul\":1134:1135   */\n      0x04\n        /* \"#utility.yul\":1127:1142   */\n      mstore\n        /* \"#utility.yul\":1161:1165   */\n      0x24\n        /* \"#utility.yul\":1158:1159   */\n      0x00\n        /* \"#utility.yul\":1151:1166   */\n      revert\n\n    auxdata: 0xa2646970667358221220474ca4de6497e29a5a35fbf361697c354b895c64dc67eeef64038c52d64fb57464736f6c63430008070033\n}\n",
				"bytecode": {
					"linkReferences": {},
					"object": "608060405234801561001057600080fd5b506102c7806100206000396000f3fe60806040526004361061002d5760003560e01c806306c26f75146100e857806318394a5614610113576100e3565b366100e357346000803373ffffffffffffffffffffffffffffffffffffffff1673ffffffffffffffffffffffffffffffffffffffff168152602001908152602001600020600001600082825461008391906101b9565b925050819055506000803373ffffffffffffffffffffffffffffffffffffffff1673ffffffffffffffffffffffffffffffffffffffff16815260200190815260200160002060010160008154809291906100dc90610219565b9190505550005b600080fd5b3480156100f457600080fd5b506100fd61013e565b60405161010a919061019e565b60405180910390f35b34801561011f57600080fd5b50610128610146565b604051610135919061019e565b60405180910390f35b600047905090565b60008060003373ffffffffffffffffffffffffffffffffffffffff1673ffffffffffffffffffffffffffffffffffffffff16815260200190815260200160002060000154905090565b6101988161020f565b82525050565b60006020820190506101b3600083018461018f565b92915050565b60006101c48261020f565b91506101cf8361020f565b9250827fffffffffffffffffffffffffffffffffffffffffffffffffffffffffffffffff0382111561020457610203610262565b5b828201905092915050565b6000819050919050565b60006102248261020f565b91507fffffffffffffffffffffffffffffffffffffffffffffffffffffffffffffffff82141561025757610256610262565b5b600182019050919050565b7f4e487b7100000000000000000000000000000000000000000000000000000000600052601160045260246000fdfea2646970667358221220474ca4de6497e29a5a35fbf361697c354b895c64dc67eeef64038c52d64fb57464736f6c63430008070033",
					"opcodes": "PUSH1 0x80 PUSH1 0x40 MSTORE CALLVALUE DUP1 ISZERO PUSH2 0x10 JUMPI PUSH1 0x0 DUP1 REVERT JUMPDEST POP PUSH2 0x2C7 DUP1 PUSH2 0x20 PUSH1 0x0 CODECOPY PUSH1 0x0 RETURN INVALID PUSH1 0x80 PUSH1 0x40 MSTORE PUSH1 0x4 CALLDATASIZE LT PUSH2 0x2D JUMPI PUSH1 0x0 CALLDATALOAD PUSH1 0xE0 SHR DUP1 PUSH4 0x6C26F75 EQ PUSH2 0xE8 JUMPI DUP1 PUSH4 0x18394A56 EQ PUSH2 0x113 JUMPI PUSH2 0xE3 JUMP JUMPDEST CALLDATASIZE PUSH2 0xE3 JUMPI CALLVALUE PUSH1 0x0 DUP1 CALLER PUSH20 0xFFFFFFFFFFFFFFFFFFFFFFFFFFFFFFFFFFFFFFFF AND PUSH20 0xFFFFFFFFFFFFFFFFFFFFFFFFFFFFFFFFFFFFFFFF AND DUP2 MSTORE PUSH1 0x20 ADD SWAP1 DUP2 MSTORE PUSH1 0x20 ADD PUSH1 0x0 KECCAK256 PUSH1 0x0 ADD PUSH1 0x0 DUP3 DUP3 SLOAD PUSH2 0x83 SWAP2 SWAP1 PUSH2 0x1B9 JUMP JUMPDEST SWAP3 POP POP DUP2 SWAP1 SSTORE POP PUSH1 0x0 DUP1 CALLER PUSH20 0xFFFFFFFFFFFFFFFFFFFFFFFFFFFFFFFFFFFFFFFF AND PUSH20 0xFFFFFFFFFFFFFFFFFFFFFFFFFFFFFFFFFFFFFFFF AND DUP2 MSTORE PUSH1 0x20 ADD SWAP1 DUP2 MSTORE PUSH1 0x20 ADD PUSH1 0x0 KECCAK256 PUSH1 0x1 ADD PUSH1 0x0 DUP2 SLOAD DUP1 SWAP3 SWAP2 SWAP1 PUSH2 0xDC SWAP1 PUSH2 0x219 JUMP JUMPDEST SWAP2 SWAP1 POP SSTORE POP STOP JUMPDEST PUSH1 0x0 DUP1 REVERT JUMPDEST CALLVALUE DUP1 ISZERO PUSH2 0xF4 JUMPI PUSH1 0x0 DUP1 REVERT JUMPDEST POP PUSH2 0xFD PUSH2 0x13E JUMP JUMPDEST PUSH1 0x40 MLOAD PUSH2 0x10A SWAP2 SWAP1 PUSH2 0x19E JUMP JUMPDEST PUSH1 0x40 MLOAD DUP1 SWAP2 SUB SWAP1 RETURN JUMPDEST CALLVALUE DUP1 ISZERO PUSH2 0x11F JUMPI PUSH1 0x0 DUP1 REVERT JUMPDEST POP PUSH2 0x128 PUSH2 0x146 JUMP JUMPDEST PUSH1 0x40 MLOAD PUSH2 0x135 SWAP2 SWAP1 PUSH2 0x19E JUMP JUMPDEST PUSH1 0x40 MLOAD DUP1 SWAP2 SUB SWAP1 RETURN JUMPDEST PUSH1 0x0 SELFBALANCE SWAP1 POP SWAP1 JUMP JUMPDEST PUSH1 0x0 DUP1 PUSH1 0x0 CALLER PUSH20 0xFFFFFFFFFFFFFFFFFFFFFFFFFFFFFFFFFFFFFFFF AND PUSH20 0xFFFFFFFFFFFFFFFFFFFFFFFFFFFFFFFFFFFFFFFF AND DUP2 MSTORE PUSH1 0x20 ADD SWAP1 DUP2 MSTORE PUSH1 0x20 ADD PUSH1 0x0 KECCAK256 PUSH1 0x0 ADD SLOAD SWAP1 POP SWAP1 JUMP JUMPDEST PUSH2 0x198 DUP2 PUSH2 0x20F JUMP JUMPDEST DUP3 MSTORE POP POP JUMP JUMPDEST PUSH1 0x0 PUSH1 0x20 DUP3 ADD SWAP1 POP PUSH2 0x1B3 PUSH1 0x0 DUP4 ADD DUP5 PUSH2 0x18F JUMP JUMPDEST SWAP3 SWAP2 POP POP JUMP JUMPDEST PUSH1 0x0 PUSH2 0x1C4 DUP3 PUSH2 0x20F JUMP JUMPDEST SWAP2 POP PUSH2 0x1CF DUP4 PUSH2 0x20F JUMP JUMPDEST SWAP3 POP DUP3 PUSH32 0xFFFFFFFFFFFFFFFFFFFFFFFFFFFFFFFFFFFFFFFFFFFFFFFFFFFFFFFFFFFFFFFF SUB DUP3 GT ISZERO PUSH2 0x204 JUMPI PUSH2 0x203 PUSH2 0x262 JUMP JUMPDEST JUMPDEST DUP3 DUP3 ADD SWAP1 POP SWAP3 SWAP2 POP POP JUMP JUMPDEST PUSH1 0x0 DUP2 SWAP1 POP SWAP2 SWAP1 POP JUMP JUMPDEST PUSH1 0x0 PUSH2 0x224 DUP3 PUSH2 0x20F JUMP JUMPDEST SWAP2 POP PUSH32 0xFFFFFFFFFFFFFFFFFFFFFFFFFFFFFFFFFFFFFFFFFFFFFFFFFFFFFFFFFFFFFFFF DUP3 EQ ISZERO PUSH2 0x257 JUMPI PUSH2 0x256 PUSH2 0x262 JUMP JUMPDEST JUMPDEST PUSH1 0x1 DUP3 ADD SWAP1 POP SWAP2 SWAP1 POP JUMP JUMPDEST PUSH32 0x4E487B7100000000000000000000000000000000000000000000000000000000 PUSH1 0x0 MSTORE PUSH1 0x11 PUSH1 0x4 MSTORE PUSH1 0x24 PUSH1 0x0 REVERT INVALID LOG2 PUSH5 0x6970667358 0x22 SLT KECCAK256 SELFBALANCE 0x4C LOG4 0xDE PUSH5 0x97E29A5A35 0xFB RETURN PUSH2 0x697C CALLDATALOAD 0x4B DUP10 0x5C PUSH5 0xDC67EEEF64 SUB DUP13 MSTORE 0xD6 0x4F 0xB5 PUSH21 0x64736F6C6343000807003300000000000000000000 "
				},
				"gasEstimates": {
					"creation": {
						"codeDepositCost": "142200",
						"executionCost": "190",
						"totalCost": "142390"
					},
					"external": {
						"getMontant()": "2532",
						"getTotalMontant()": "317"
					}
				},
				"methodIdentifiers": {
					"getMontant()": "18394a56",
					"getTotalMontant()": "06c26f75"
				}
			},
			"storageLayout": {
				"storage": [
					{
						"astId": 11,
						"contract": "contracts/test.sol:test",
						"label": "Wallets",
						"offset": 0,
						"slot": "0",
						"type": "t_mapping(t_address,t_struct(wallet)6_storage)"
					}
				],
				"types": {
					"t_address": {
						"encoding": "inplace",
						"label": "address",
						"numberOfBytes": "20"
					},
					"t_mapping(t_address,t_struct(wallet)6_storage)": {
						"encoding": "mapping",
						"key": "t_address",
						"label": "mapping(address => struct test.wallet)",
						"numberOfBytes": "32",
						"value": "t_struct(wallet)6_storage"
					},
					"t_struct(wallet)6_storage": {
						"encoding": "inplace",
						"label": "struct test.wallet",
						"members": [
							{
								"astId": 3,
								"contract": "contracts/test.sol:test",
								"label": "balance",
								"offset": 0,
								"slot": "0",
								"type": "t_uint256"
							},
							{
								"astId": 5,
								"contract": "contracts/test.sol:test",
								"label": "nbPayements",
								"offset": 0,
								"slot": "1",
								"type": "t_uint256"
							}
						],
						"numberOfBytes": "64"
					},
					"t_uint256": {
						"encoding": "inplace",
						"label": "uint256",
						"numberOfBytes": "32"
					}
				}
			},
			"userdoc": {
				"kind": "user",
				"methods": {},
				"version": 1
			}
		}
	}
}