{
	"contracts/exercice.sol": {
		"Exercice": {
			"abi": [
				{
					"inputs": [
						{
							"internalType": "address",
							"name": "_eleve",
							"type": "address"
						},
						{
							"internalType": "uint256",
							"name": "_note",
							"type": "uint256"
						}
					],
					"name": "addNote",
					"outputs": [],
					"stateMutability": "nonpayable",
					"type": "function"
				},
				{
					"inputs": [
						{
							"internalType": "address",
							"name": "_eleve",
							"type": "address"
						}
					],
					"name": "getNotes",
					"outputs": [
						{
							"internalType": "uint256[]",
							"name": "",
							"type": "uint256[]"
						}
					],
					"stateMutability": "view",
					"type": "function"
				},
				{
					"inputs": [
						{
							"internalType": "address",
							"name": "_eleve",
							"type": "address"
						},
						{
							"internalType": "string",
							"name": "_nom",
							"type": "string"
						}
					],
					"name": "setNom",
					"outputs": [],
					"stateMutability": "nonpayable",
					"type": "function"
				}
			],
			"devdoc": {
				"kind": "dev",
				"methods": {},
				"version": 1
			},
			"evm": {
				"assembly": "    /* \"contracts/exercice.sol\":26:530  contract Exercice {\r... */\n  mstore(0x40, 0x80)\n  callvalue\n  dup1\n  iszero\n  tag_1\n  jumpi\n  0x00\n  dup1\n  revert\ntag_1:\n  pop\n  dataSize(sub_0)\n  dup1\n  dataOffset(sub_0)\n  0x00\n  codecopy\n  0x00\n  return\nstop\n\nsub_0: assembly {\n        /* \"contracts/exercice.sol\":26:530  contract Exercice {\r... */\n      mstore(0x40, 0x80)\n      callvalue\n      dup1\n      iszero\n      tag_1\n      jumpi\n      0x00\n      dup1\n      revert\n    tag_1:\n      pop\n      jumpi(tag_2, lt(calldatasize, 0x04))\n      shr(0xe0, calldataload(0x00))\n      dup1\n      0x10a50690\n      eq\n      tag_3\n      jumpi\n      dup1\n      0x71f55c9a\n      eq\n      tag_4\n      jumpi\n      dup1\n      0xce5d52e7\n      eq\n      tag_5\n      jumpi\n    tag_2:\n      0x00\n      dup1\n      revert\n        /* \"contracts/exercice.sol\":303:417  function getNotes(address _eleve) public view returns(uint[] memory){\r... */\n    tag_3:\n      tag_6\n      0x04\n      dup1\n      calldatasize\n      sub\n      dup2\n      add\n      swap1\n      tag_7\n      swap2\n      swap1\n      tag_8\n      jump\t// in\n    tag_7:\n      tag_9\n      jump\t// in\n    tag_6:\n      mload(0x40)\n      tag_10\n      swap2\n      swap1\n      tag_11\n      jump\t// in\n    tag_10:\n      mload(0x40)\n      dup1\n      swap2\n      sub\n      swap1\n      return\n        /* \"contracts/exercice.sol\":425:527  function setNom(address _eleve, string memory _nom) public{\r... */\n    tag_4:\n      tag_12\n      0x04\n      dup1\n      calldatasize\n      sub\n      dup2\n      add\n      swap1\n      tag_13\n      swap2\n      swap1\n      tag_14\n      jump\t// in\n    tag_13:\n      tag_15\n      jump\t// in\n    tag_12:\n      stop\n        /* \"contracts/exercice.sol\":192:295  function addNote(address _eleve, uint _note) public {\r... */\n    tag_5:\n      tag_16\n      0x04\n      dup1\n      calldatasize\n      sub\n      dup2\n      add\n      swap1\n      tag_17\n      swap2\n      swap1\n      tag_18\n      jump\t// in\n    tag_17:\n      tag_19\n      jump\t// in\n    tag_16:\n      stop\n        /* \"contracts/exercice.sol\":303:417  function getNotes(address _eleve) public view returns(uint[] memory){\r... */\n    tag_9:\n        /* \"contracts/exercice.sol\":357:370  uint[] memory */\n      0x60\n        /* \"contracts/exercice.sol\":389:395  Eleves */\n      0x00\n        /* \"contracts/exercice.sol\":389:403  Eleves[_eleve] */\n      dup1\n        /* \"contracts/exercice.sol\":396:402  _eleve */\n      dup4\n        /* \"contracts/exercice.sol\":389:403  Eleves[_eleve] */\n      0xffffffffffffffffffffffffffffffffffffffff\n      and\n      0xffffffffffffffffffffffffffffffffffffffff\n      and\n      dup2\n      mstore\n      0x20\n      add\n      swap1\n      dup2\n      mstore\n      0x20\n      add\n      0x00\n      keccak256\n        /* \"contracts/exercice.sol\":389:409  Eleves[_eleve].notes */\n      0x02\n      add\n        /* \"contracts/exercice.sol\":382:409  return Eleves[_eleve].notes */\n      dup1\n      sload\n      dup1\n      0x20\n      mul\n      0x20\n      add\n      mload(0x40)\n      swap1\n      dup2\n      add\n      0x40\n      mstore\n      dup1\n      swap3\n      swap2\n      swap1\n      dup2\n      dup2\n      mstore\n      0x20\n      add\n      dup3\n      dup1\n      sload\n      dup1\n      iszero\n      tag_21\n      jumpi\n      0x20\n      mul\n      dup3\n      add\n      swap2\n      swap1\n      0x00\n      mstore\n      keccak256(0x00, 0x20)\n      swap1\n    tag_22:\n      dup2\n      sload\n      dup2\n      mstore\n      0x20\n      add\n      swap1\n      0x01\n      add\n      swap1\n      dup1\n      dup4\n      gt\n      tag_22\n      jumpi\n    tag_21:\n      pop\n      pop\n      pop\n      pop\n      pop\n      swap1\n      pop\n        /* \"contracts/exercice.sol\":303:417  function getNotes(address _eleve) public view returns(uint[] memory){\r... */\n      swap2\n      swap1\n      pop\n      jump\t// out\n        /* \"contracts/exercice.sol\":425:527  function setNom(address _eleve, string memory _nom) public{\r... */\n    tag_15:\n        /* \"contracts/exercice.sol\":515:519  _nom */\n      dup1\n        /* \"contracts/exercice.sol\":494:500  Eleves */\n      0x00\n        /* \"contracts/exercice.sol\":494:508  Eleves[_eleve] */\n      dup1\n        /* \"contracts/exercice.sol\":501:507  _eleve */\n      dup5\n        /* \"contracts/exercice.sol\":494:508  Eleves[_eleve] */\n      0xffffffffffffffffffffffffffffffffffffffff\n      and\n      0xffffffffffffffffffffffffffffffffffffffff\n      and\n      dup2\n      mstore\n      0x20\n      add\n      swap1\n      dup2\n      mstore\n      0x20\n      add\n      0x00\n      keccak256\n        /* \"contracts/exercice.sol\":494:512  Eleves[_eleve].nom */\n      0x00\n      add\n        /* \"contracts/exercice.sol\":494:519  Eleves[_eleve].nom = _nom */\n      swap1\n      dup1\n      mload\n      swap1\n      0x20\n      add\n      swap1\n      tag_24\n      swap3\n      swap2\n      swap1\n      tag_25\n      jump\t// in\n    tag_24:\n      pop\n        /* \"contracts/exercice.sol\":425:527  function setNom(address _eleve, string memory _nom) public{\r... */\n      pop\n      pop\n      jump\t// out\n        /* \"contracts/exercice.sol\":192:295  function addNote(address _eleve, uint _note) public {\r... */\n    tag_19:\n        /* \"contracts/exercice.sol\":255:261  Eleves */\n      0x00\n        /* \"contracts/exercice.sol\":255:269  Eleves[_eleve] */\n      dup1\n        /* \"contracts/exercice.sol\":262:268  _eleve */\n      dup4\n        /* \"contracts/exercice.sol\":255:269  Eleves[_eleve] */\n      0xffffffffffffffffffffffffffffffffffffffff\n      and\n      0xffffffffffffffffffffffffffffffffffffffff\n      and\n      dup2\n      mstore\n      0x20\n      add\n      swap1\n      dup2\n      mstore\n      0x20\n      add\n      0x00\n      keccak256\n        /* \"contracts/exercice.sol\":255:275  Eleves[_eleve].notes */\n      0x02\n      add\n        /* \"contracts/exercice.sol\":281:286  _note */\n      dup2\n        /* \"contracts/exercice.sol\":255:287  Eleves[_eleve].notes.push(_note) */\n      swap1\n      dup1\n      0x01\n      dup2\n      sload\n      add\n      dup1\n      dup3\n      sstore\n      dup1\n      swap2\n      pop\n      pop\n      0x01\n      swap1\n      sub\n      swap1\n      0x00\n      mstore\n      keccak256(0x00, 0x20)\n      add\n      0x00\n      swap1\n      swap2\n      swap1\n      swap2\n      swap1\n      swap2\n      pop\n      sstore\n        /* \"contracts/exercice.sol\":192:295  function addNote(address _eleve, uint _note) public {\r... */\n      pop\n      pop\n      jump\t// out\n    tag_25:\n      dup3\n      dup1\n      sload\n      tag_28\n      swap1\n      tag_29\n      jump\t// in\n    tag_28:\n      swap1\n      0x00\n      mstore\n      keccak256(0x00, 0x20)\n      swap1\n      0x1f\n      add\n      0x20\n      swap1\n      div\n      dup2\n      add\n      swap3\n      dup3\n      tag_31\n      jumpi\n      0x00\n      dup6\n      sstore\n      jump(tag_30)\n    tag_31:\n      dup3\n      0x1f\n      lt\n      tag_32\n      jumpi\n      dup1\n      mload\n      not(0xff)\n      and\n      dup4\n      dup1\n      add\n      or\n      dup6\n      sstore\n      jump(tag_30)\n    tag_32:\n      dup3\n      dup1\n      add\n      0x01\n      add\n      dup6\n      sstore\n      dup3\n      iszero\n      tag_30\n      jumpi\n      swap2\n      dup3\n      add\n    tag_33:\n      dup3\n      dup2\n      gt\n      iszero\n      tag_34\n      jumpi\n      dup3\n      mload\n      dup3\n      sstore\n      swap2\n      0x20\n      add\n      swap2\n      swap1\n      0x01\n      add\n      swap1\n      jump(tag_33)\n    tag_34:\n    tag_30:\n      pop\n      swap1\n      pop\n      tag_35\n      swap2\n      swap1\n      tag_36\n      jump\t// in\n    tag_35:\n      pop\n      swap1\n      jump\t// out\n    tag_36:\n    tag_37:\n      dup1\n      dup3\n      gt\n      iszero\n      tag_38\n      jumpi\n      0x00\n      dup2\n      0x00\n      swap1\n      sstore\n      pop\n      0x01\n      add\n      jump(tag_37)\n    tag_38:\n      pop\n      swap1\n      jump\t// out\n        /* \"#utility.yul\":7:419   */\n    tag_40:\n        /* \"#utility.yul\":85:90   */\n      0x00\n        /* \"#utility.yul\":110:176   */\n      tag_42\n        /* \"#utility.yul\":126:175   */\n      tag_43\n        /* \"#utility.yul\":168:174   */\n      dup5\n        /* \"#utility.yul\":126:175   */\n      tag_44\n      jump\t// in\n    tag_43:\n        /* \"#utility.yul\":110:176   */\n      tag_45\n      jump\t// in\n    tag_42:\n        /* \"#utility.yul\":101:176   */\n      swap1\n      pop\n        /* \"#utility.yul\":199:205   */\n      dup3\n        /* \"#utility.yul\":192:197   */\n      dup2\n        /* \"#utility.yul\":185:206   */\n      mstore\n        /* \"#utility.yul\":237:241   */\n      0x20\n        /* \"#utility.yul\":230:235   */\n      dup2\n        /* \"#utility.yul\":226:242   */\n      add\n        /* \"#utility.yul\":275:278   */\n      dup5\n        /* \"#utility.yul\":266:272   */\n      dup5\n        /* \"#utility.yul\":261:264   */\n      dup5\n        /* \"#utility.yul\":257:273   */\n      add\n        /* \"#utility.yul\":254:279   */\n      gt\n        /* \"#utility.yul\":251:363   */\n      iszero\n      tag_46\n      jumpi\n        /* \"#utility.yul\":282:361   */\n      tag_47\n      tag_48\n      jump\t// in\n    tag_47:\n        /* \"#utility.yul\":251:363   */\n    tag_46:\n        /* \"#utility.yul\":372:413   */\n      tag_49\n        /* \"#utility.yul\":406:412   */\n      dup5\n        /* \"#utility.yul\":401:404   */\n      dup3\n        /* \"#utility.yul\":396:399   */\n      dup6\n        /* \"#utility.yul\":372:413   */\n      tag_50\n      jump\t// in\n    tag_49:\n        /* \"#utility.yul\":91:419   */\n      pop\n        /* \"#utility.yul\":7:419   */\n      swap4\n      swap3\n      pop\n      pop\n      pop\n      jump\t// out\n        /* \"#utility.yul\":425:564   */\n    tag_51:\n        /* \"#utility.yul\":471:476   */\n      0x00\n        /* \"#utility.yul\":509:515   */\n      dup2\n        /* \"#utility.yul\":496:516   */\n      calldataload\n        /* \"#utility.yul\":487:516   */\n      swap1\n      pop\n        /* \"#utility.yul\":525:558   */\n      tag_53\n        /* \"#utility.yul\":552:557   */\n      dup2\n        /* \"#utility.yul\":525:558   */\n      tag_54\n      jump\t// in\n    tag_53:\n        /* \"#utility.yul\":425:564   */\n      swap3\n      swap2\n      pop\n      pop\n      jump\t// out\n        /* \"#utility.yul\":584:924   */\n    tag_55:\n        /* \"#utility.yul\":640:645   */\n      0x00\n        /* \"#utility.yul\":689:692   */\n      dup3\n        /* \"#utility.yul\":682:686   */\n      0x1f\n        /* \"#utility.yul\":674:680   */\n      dup4\n        /* \"#utility.yul\":670:687   */\n      add\n        /* \"#utility.yul\":666:693   */\n      slt\n        /* \"#utility.yul\":656:778   */\n      tag_57\n      jumpi\n        /* \"#utility.yul\":697:776   */\n      tag_58\n      tag_59\n      jump\t// in\n    tag_58:\n        /* \"#utility.yul\":656:778   */\n    tag_57:\n        /* \"#utility.yul\":814:820   */\n      dup2\n        /* \"#utility.yul\":801:821   */\n      calldataload\n        /* \"#utility.yul\":839:918   */\n      tag_60\n        /* \"#utility.yul\":914:917   */\n      dup5\n        /* \"#utility.yul\":906:912   */\n      dup3\n        /* \"#utility.yul\":899:903   */\n      0x20\n        /* \"#utility.yul\":891:897   */\n      dup7\n        /* \"#utility.yul\":887:904   */\n      add\n        /* \"#utility.yul\":839:918   */\n      tag_40\n      jump\t// in\n    tag_60:\n        /* \"#utility.yul\":830:918   */\n      swap2\n      pop\n        /* \"#utility.yul\":646:924   */\n      pop\n        /* \"#utility.yul\":584:924   */\n      swap3\n      swap2\n      pop\n      pop\n      jump\t// out\n        /* \"#utility.yul\":930:1069   */\n    tag_61:\n        /* \"#utility.yul\":976:981   */\n      0x00\n        /* \"#utility.yul\":1014:1020   */\n      dup2\n        /* \"#utility.yul\":1001:1021   */\n      calldataload\n        /* \"#utility.yul\":992:1021   */\n      swap1\n      pop\n        /* \"#utility.yul\":1030:1063   */\n      tag_63\n        /* \"#utility.yul\":1057:1062   */\n      dup2\n        /* \"#utility.yul\":1030:1063   */\n      tag_64\n      jump\t// in\n    tag_63:\n        /* \"#utility.yul\":930:1069   */\n      swap3\n      swap2\n      pop\n      pop\n      jump\t// out\n        /* \"#utility.yul\":1075:1404   */\n    tag_8:\n        /* \"#utility.yul\":1134:1140   */\n      0x00\n        /* \"#utility.yul\":1183:1185   */\n      0x20\n        /* \"#utility.yul\":1171:1180   */\n      dup3\n        /* \"#utility.yul\":1162:1169   */\n      dup5\n        /* \"#utility.yul\":1158:1181   */\n      sub\n        /* \"#utility.yul\":1154:1186   */\n      slt\n        /* \"#utility.yul\":1151:1270   */\n      iszero\n      tag_66\n      jumpi\n        /* \"#utility.yul\":1189:1268   */\n      tag_67\n      tag_68\n      jump\t// in\n    tag_67:\n        /* \"#utility.yul\":1151:1270   */\n    tag_66:\n        /* \"#utility.yul\":1309:1310   */\n      0x00\n        /* \"#utility.yul\":1334:1387   */\n      tag_69\n        /* \"#utility.yul\":1379:1386   */\n      dup5\n        /* \"#utility.yul\":1370:1376   */\n      dup3\n        /* \"#utility.yul\":1359:1368   */\n      dup6\n        /* \"#utility.yul\":1355:1377   */\n      add\n        /* \"#utility.yul\":1334:1387   */\n      tag_51\n      jump\t// in\n    tag_69:\n        /* \"#utility.yul\":1324:1387   */\n      swap2\n      pop\n        /* \"#utility.yul\":1280:1397   */\n      pop\n        /* \"#utility.yul\":1075:1404   */\n      swap3\n      swap2\n      pop\n      pop\n      jump\t// out\n        /* \"#utility.yul\":1410:2064   */\n    tag_14:\n        /* \"#utility.yul\":1488:1494   */\n      0x00\n        /* \"#utility.yul\":1496:1502   */\n      dup1\n        /* \"#utility.yul\":1545:1547   */\n      0x40\n        /* \"#utility.yul\":1533:1542   */\n      dup4\n        /* \"#utility.yul\":1524:1531   */\n      dup6\n        /* \"#utility.yul\":1520:1543   */\n      sub\n        /* \"#utility.yul\":1516:1548   */\n      slt\n        /* \"#utility.yul\":1513:1632   */\n      iszero\n      tag_71\n      jumpi\n        /* \"#utility.yul\":1551:1630   */\n      tag_72\n      tag_68\n      jump\t// in\n    tag_72:\n        /* \"#utility.yul\":1513:1632   */\n    tag_71:\n        /* \"#utility.yul\":1671:1672   */\n      0x00\n        /* \"#utility.yul\":1696:1749   */\n      tag_73\n        /* \"#utility.yul\":1741:1748   */\n      dup6\n        /* \"#utility.yul\":1732:1738   */\n      dup3\n        /* \"#utility.yul\":1721:1730   */\n      dup7\n        /* \"#utility.yul\":1717:1739   */\n      add\n        /* \"#utility.yul\":1696:1749   */\n      tag_51\n      jump\t// in\n    tag_73:\n        /* \"#utility.yul\":1686:1749   */\n      swap3\n      pop\n        /* \"#utility.yul\":1642:1759   */\n      pop\n        /* \"#utility.yul\":1826:1828   */\n      0x20\n        /* \"#utility.yul\":1815:1824   */\n      dup4\n        /* \"#utility.yul\":1811:1829   */\n      add\n        /* \"#utility.yul\":1798:1830   */\n      calldataload\n        /* \"#utility.yul\":1857:1875   */\n      0xffffffffffffffff\n        /* \"#utility.yul\":1849:1855   */\n      dup2\n        /* \"#utility.yul\":1846:1876   */\n      gt\n        /* \"#utility.yul\":1843:1960   */\n      iszero\n      tag_74\n      jumpi\n        /* \"#utility.yul\":1879:1958   */\n      tag_75\n      tag_76\n      jump\t// in\n    tag_75:\n        /* \"#utility.yul\":1843:1960   */\n    tag_74:\n        /* \"#utility.yul\":1984:2047   */\n      tag_77\n        /* \"#utility.yul\":2039:2046   */\n      dup6\n        /* \"#utility.yul\":2030:2036   */\n      dup3\n        /* \"#utility.yul\":2019:2028   */\n      dup7\n        /* \"#utility.yul\":2015:2037   */\n      add\n        /* \"#utility.yul\":1984:2047   */\n      tag_55\n      jump\t// in\n    tag_77:\n        /* \"#utility.yul\":1974:2047   */\n      swap2\n      pop\n        /* \"#utility.yul\":1769:2057   */\n      pop\n        /* \"#utility.yul\":1410:2064   */\n      swap3\n      pop\n      swap3\n      swap1\n      pop\n      jump\t// out\n        /* \"#utility.yul\":2070:2544   */\n    tag_18:\n        /* \"#utility.yul\":2138:2144   */\n      0x00\n        /* \"#utility.yul\":2146:2152   */\n      dup1\n        /* \"#utility.yul\":2195:2197   */\n      0x40\n        /* \"#utility.yul\":2183:2192   */\n      dup4\n        /* \"#utility.yul\":2174:2181   */\n      dup6\n        /* \"#utility.yul\":2170:2193   */\n      sub\n        /* \"#utility.yul\":2166:2198   */\n      slt\n        /* \"#utility.yul\":2163:2282   */\n      iszero\n      tag_79\n      jumpi\n        /* \"#utility.yul\":2201:2280   */\n      tag_80\n      tag_68\n      jump\t// in\n    tag_80:\n        /* \"#utility.yul\":2163:2282   */\n    tag_79:\n        /* \"#utility.yul\":2321:2322   */\n      0x00\n        /* \"#utility.yul\":2346:2399   */\n      tag_81\n        /* \"#utility.yul\":2391:2398   */\n      dup6\n        /* \"#utility.yul\":2382:2388   */\n      dup3\n        /* \"#utility.yul\":2371:2380   */\n      dup7\n        /* \"#utility.yul\":2367:2389   */\n      add\n        /* \"#utility.yul\":2346:2399   */\n      tag_51\n      jump\t// in\n    tag_81:\n        /* \"#utility.yul\":2336:2399   */\n      swap3\n      pop\n        /* \"#utility.yul\":2292:2409   */\n      pop\n        /* \"#utility.yul\":2448:2450   */\n      0x20\n        /* \"#utility.yul\":2474:2527   */\n      tag_82\n        /* \"#utility.yul\":2519:2526   */\n      dup6\n        /* \"#utility.yul\":2510:2516   */\n      dup3\n        /* \"#utility.yul\":2499:2508   */\n      dup7\n        /* \"#utility.yul\":2495:2517   */\n      add\n        /* \"#utility.yul\":2474:2527   */\n      tag_61\n      jump\t// in\n    tag_82:\n        /* \"#utility.yul\":2464:2527   */\n      swap2\n      pop\n        /* \"#utility.yul\":2419:2537   */\n      pop\n        /* \"#utility.yul\":2070:2544   */\n      swap3\n      pop\n      swap3\n      swap1\n      pop\n      jump\t// out\n        /* \"#utility.yul\":2550:2729   */\n    tag_83:\n        /* \"#utility.yul\":2619:2629   */\n      0x00\n        /* \"#utility.yul\":2640:2686   */\n      tag_85\n        /* \"#utility.yul\":2682:2685   */\n      dup4\n        /* \"#utility.yul\":2674:2680   */\n      dup4\n        /* \"#utility.yul\":2640:2686   */\n      tag_86\n      jump\t// in\n    tag_85:\n        /* \"#utility.yul\":2718:2722   */\n      0x20\n        /* \"#utility.yul\":2713:2716   */\n      dup4\n        /* \"#utility.yul\":2709:2723   */\n      add\n        /* \"#utility.yul\":2695:2723   */\n      swap1\n      pop\n        /* \"#utility.yul\":2550:2729   */\n      swap3\n      swap2\n      pop\n      pop\n      jump\t// out\n        /* \"#utility.yul\":2765:3497   */\n    tag_87:\n        /* \"#utility.yul\":2884:2887   */\n      0x00\n        /* \"#utility.yul\":2913:2967   */\n      tag_89\n        /* \"#utility.yul\":2961:2966   */\n      dup3\n        /* \"#utility.yul\":2913:2967   */\n      tag_90\n      jump\t// in\n    tag_89:\n        /* \"#utility.yul\":2983:3069   */\n      tag_91\n        /* \"#utility.yul\":3062:3068   */\n      dup2\n        /* \"#utility.yul\":3057:3060   */\n      dup6\n        /* \"#utility.yul\":2983:3069   */\n      tag_92\n      jump\t// in\n    tag_91:\n        /* \"#utility.yul\":2976:3069   */\n      swap4\n      pop\n        /* \"#utility.yul\":3093:3149   */\n      tag_93\n        /* \"#utility.yul\":3143:3148   */\n      dup4\n        /* \"#utility.yul\":3093:3149   */\n      tag_94\n      jump\t// in\n    tag_93:\n        /* \"#utility.yul\":3172:3179   */\n      dup1\n        /* \"#utility.yul\":3203:3204   */\n      0x00\n        /* \"#utility.yul\":3188:3472   */\n    tag_95:\n        /* \"#utility.yul\":3213:3219   */\n      dup4\n        /* \"#utility.yul\":3210:3211   */\n      dup2\n        /* \"#utility.yul\":3207:3220   */\n      lt\n        /* \"#utility.yul\":3188:3472   */\n      iszero\n      tag_97\n      jumpi\n        /* \"#utility.yul\":3289:3295   */\n      dup2\n        /* \"#utility.yul\":3283:3296   */\n      mload\n        /* \"#utility.yul\":3316:3379   */\n      tag_98\n        /* \"#utility.yul\":3375:3378   */\n      dup9\n        /* \"#utility.yul\":3360:3373   */\n      dup3\n        /* \"#utility.yul\":3316:3379   */\n      tag_83\n      jump\t// in\n    tag_98:\n        /* \"#utility.yul\":3309:3379   */\n      swap8\n      pop\n        /* \"#utility.yul\":3402:3462   */\n      tag_99\n        /* \"#utility.yul\":3455:3461   */\n      dup4\n        /* \"#utility.yul\":3402:3462   */\n      tag_100\n      jump\t// in\n    tag_99:\n        /* \"#utility.yul\":3392:3462   */\n      swap3\n      pop\n        /* \"#utility.yul\":3248:3472   */\n      pop\n        /* \"#utility.yul\":3235:3236   */\n      0x01\n        /* \"#utility.yul\":3232:3233   */\n      dup2\n        /* \"#utility.yul\":3228:3237   */\n      add\n        /* \"#utility.yul\":3223:3237   */\n      swap1\n      pop\n        /* \"#utility.yul\":3188:3472   */\n      jump(tag_95)\n    tag_97:\n        /* \"#utility.yul\":3192:3206   */\n      pop\n        /* \"#utility.yul\":3488:3491   */\n      dup6\n        /* \"#utility.yul\":3481:3491   */\n      swap4\n      pop\n        /* \"#utility.yul\":2889:3497   */\n      pop\n      pop\n      pop\n        /* \"#utility.yul\":2765:3497   */\n      swap3\n      swap2\n      pop\n      pop\n      jump\t// out\n        /* \"#utility.yul\":3503:3611   */\n    tag_86:\n        /* \"#utility.yul\":3580:3604   */\n      tag_102\n        /* \"#utility.yul\":3598:3603   */\n      dup2\n        /* \"#utility.yul\":3580:3604   */\n      tag_103\n      jump\t// in\n    tag_102:\n        /* \"#utility.yul\":3575:3578   */\n      dup3\n        /* \"#utility.yul\":3568:3605   */\n      mstore\n        /* \"#utility.yul\":3503:3611   */\n      pop\n      pop\n      jump\t// out\n        /* \"#utility.yul\":3617:3990   */\n    tag_11:\n        /* \"#utility.yul\":3760:3764   */\n      0x00\n        /* \"#utility.yul\":3798:3800   */\n      0x20\n        /* \"#utility.yul\":3787:3796   */\n      dup3\n        /* \"#utility.yul\":3783:3801   */\n      add\n        /* \"#utility.yul\":3775:3801   */\n      swap1\n      pop\n        /* \"#utility.yul\":3847:3856   */\n      dup2\n        /* \"#utility.yul\":3841:3845   */\n      dup2\n        /* \"#utility.yul\":3837:3857   */\n      sub\n        /* \"#utility.yul\":3833:3834   */\n      0x00\n        /* \"#utility.yul\":3822:3831   */\n      dup4\n        /* \"#utility.yul\":3818:3835   */\n      add\n        /* \"#utility.yul\":3811:3858   */\n      mstore\n        /* \"#utility.yul\":3875:3983   */\n      tag_105\n        /* \"#utility.yul\":3978:3982   */\n      dup2\n        /* \"#utility.yul\":3969:3975   */\n      dup5\n        /* \"#utility.yul\":3875:3983   */\n      tag_87\n      jump\t// in\n    tag_105:\n        /* \"#utility.yul\":3867:3983   */\n      swap1\n      pop\n        /* \"#utility.yul\":3617:3990   */\n      swap3\n      swap2\n      pop\n      pop\n      jump\t// out\n        /* \"#utility.yul\":3996:4125   */\n    tag_45:\n        /* \"#utility.yul\":4030:4036   */\n      0x00\n        /* \"#utility.yul\":4057:4077   */\n      tag_107\n      tag_108\n      jump\t// in\n    tag_107:\n        /* \"#utility.yul\":4047:4077   */\n      swap1\n      pop\n        /* \"#utility.yul\":4086:4119   */\n      tag_109\n        /* \"#utility.yul\":4114:4118   */\n      dup3\n        /* \"#utility.yul\":4106:4112   */\n      dup3\n        /* \"#utility.yul\":4086:4119   */\n      tag_110\n      jump\t// in\n    tag_109:\n        /* \"#utility.yul\":3996:4125   */\n      swap2\n      swap1\n      pop\n      jump\t// out\n        /* \"#utility.yul\":4131:4206   */\n    tag_108:\n        /* \"#utility.yul\":4164:4170   */\n      0x00\n        /* \"#utility.yul\":4197:4199   */\n      0x40\n        /* \"#utility.yul\":4191:4200   */\n      mload\n        /* \"#utility.yul\":4181:4200   */\n      swap1\n      pop\n        /* \"#utility.yul\":4131:4206   */\n      swap1\n      jump\t// out\n        /* \"#utility.yul\":4212:4520   */\n    tag_44:\n        /* \"#utility.yul\":4274:4278   */\n      0x00\n        /* \"#utility.yul\":4364:4382   */\n      0xffffffffffffffff\n        /* \"#utility.yul\":4356:4362   */\n      dup3\n        /* \"#utility.yul\":4353:4383   */\n      gt\n        /* \"#utility.yul\":4350:4406   */\n      iszero\n      tag_113\n      jumpi\n        /* \"#utility.yul\":4386:4404   */\n      tag_114\n      tag_115\n      jump\t// in\n    tag_114:\n        /* \"#utility.yul\":4350:4406   */\n    tag_113:\n        /* \"#utility.yul\":4424:4453   */\n      tag_116\n        /* \"#utility.yul\":4446:4452   */\n      dup3\n        /* \"#utility.yul\":4424:4453   */\n      tag_117\n      jump\t// in\n    tag_116:\n        /* \"#utility.yul\":4416:4453   */\n      swap1\n      pop\n        /* \"#utility.yul\":4508:4512   */\n      0x20\n        /* \"#utility.yul\":4502:4506   */\n      dup2\n        /* \"#utility.yul\":4498:4513   */\n      add\n        /* \"#utility.yul\":4490:4513   */\n      swap1\n      pop\n        /* \"#utility.yul\":4212:4520   */\n      swap2\n      swap1\n      pop\n      jump\t// out\n        /* \"#utility.yul\":4526:4658   */\n    tag_94:\n        /* \"#utility.yul\":4593:4597   */\n      0x00\n        /* \"#utility.yul\":4616:4619   */\n      dup2\n        /* \"#utility.yul\":4608:4619   */\n      swap1\n      pop\n        /* \"#utility.yul\":4646:4650   */\n      0x20\n        /* \"#utility.yul\":4641:4644   */\n      dup3\n        /* \"#utility.yul\":4637:4651   */\n      add\n        /* \"#utility.yul\":4629:4651   */\n      swap1\n      pop\n        /* \"#utility.yul\":4526:4658   */\n      swap2\n      swap1\n      pop\n      jump\t// out\n        /* \"#utility.yul\":4664:4778   */\n    tag_90:\n        /* \"#utility.yul\":4731:4737   */\n      0x00\n        /* \"#utility.yul\":4765:4770   */\n      dup2\n        /* \"#utility.yul\":4759:4771   */\n      mload\n        /* \"#utility.yul\":4749:4771   */\n      swap1\n      pop\n        /* \"#utility.yul\":4664:4778   */\n      swap2\n      swap1\n      pop\n      jump\t// out\n        /* \"#utility.yul\":4784:4897   */\n    tag_100:\n        /* \"#utility.yul\":4854:4858   */\n      0x00\n        /* \"#utility.yul\":4886:4890   */\n      0x20\n        /* \"#utility.yul\":4881:4884   */\n      dup3\n        /* \"#utility.yul\":4877:4891   */\n      add\n        /* \"#utility.yul\":4869:4891   */\n      swap1\n      pop\n        /* \"#utility.yul\":4784:4897   */\n      swap2\n      swap1\n      pop\n      jump\t// out\n        /* \"#utility.yul\":4903:5087   */\n    tag_92:\n        /* \"#utility.yul\":5002:5013   */\n      0x00\n        /* \"#utility.yul\":5036:5042   */\n      dup3\n        /* \"#utility.yul\":5031:5034   */\n      dup3\n        /* \"#utility.yul\":5024:5043   */\n      mstore\n        /* \"#utility.yul\":5076:5080   */\n      0x20\n        /* \"#utility.yul\":5071:5074   */\n      dup3\n        /* \"#utility.yul\":5067:5081   */\n      add\n        /* \"#utility.yul\":5052:5081   */\n      swap1\n      pop\n        /* \"#utility.yul\":4903:5087   */\n      swap3\n      swap2\n      pop\n      pop\n      jump\t// out\n        /* \"#utility.yul\":5093:5189   */\n    tag_122:\n        /* \"#utility.yul\":5130:5137   */\n      0x00\n        /* \"#utility.yul\":5159:5183   */\n      tag_124\n        /* \"#utility.yul\":5177:5182   */\n      dup3\n        /* \"#utility.yul\":5159:5183   */\n      tag_125\n      jump\t// in\n    tag_124:\n        /* \"#utility.yul\":5148:5183   */\n      swap1\n      pop\n        /* \"#utility.yul\":5093:5189   */\n      swap2\n      swap1\n      pop\n      jump\t// out\n        /* \"#utility.yul\":5195:5321   */\n    tag_125:\n        /* \"#utility.yul\":5232:5239   */\n      0x00\n        /* \"#utility.yul\":5272:5314   */\n      0xffffffffffffffffffffffffffffffffffffffff\n        /* \"#utility.yul\":5265:5270   */\n      dup3\n        /* \"#utility.yul\":5261:5315   */\n      and\n        /* \"#utility.yul\":5250:5315   */\n      swap1\n      pop\n        /* \"#utility.yul\":5195:5321   */\n      swap2\n      swap1\n      pop\n      jump\t// out\n        /* \"#utility.yul\":5327:5404   */\n    tag_103:\n        /* \"#utility.yul\":5364:5371   */\n      0x00\n        /* \"#utility.yul\":5393:5398   */\n      dup2\n        /* \"#utility.yul\":5382:5398   */\n      swap1\n      pop\n        /* \"#utility.yul\":5327:5404   */\n      swap2\n      swap1\n      pop\n      jump\t// out\n        /* \"#utility.yul\":5410:5564   */\n    tag_50:\n        /* \"#utility.yul\":5494:5500   */\n      dup3\n        /* \"#utility.yul\":5489:5492   */\n      dup2\n        /* \"#utility.yul\":5484:5487   */\n      dup4\n        /* \"#utility.yul\":5471:5501   */\n      calldatacopy\n        /* \"#utility.yul\":5556:5557   */\n      0x00\n        /* \"#utility.yul\":5547:5553   */\n      dup4\n        /* \"#utility.yul\":5542:5545   */\n      dup4\n        /* \"#utility.yul\":5538:5554   */\n      add\n        /* \"#utility.yul\":5531:5558   */\n      mstore\n        /* \"#utility.yul\":5410:5564   */\n      pop\n      pop\n      pop\n      jump\t// out\n        /* \"#utility.yul\":5570:5890   */\n    tag_29:\n        /* \"#utility.yul\":5614:5620   */\n      0x00\n        /* \"#utility.yul\":5651:5652   */\n      0x02\n        /* \"#utility.yul\":5645:5649   */\n      dup3\n        /* \"#utility.yul\":5641:5653   */\n      div\n        /* \"#utility.yul\":5631:5653   */\n      swap1\n      pop\n        /* \"#utility.yul\":5698:5699   */\n      0x01\n        /* \"#utility.yul\":5692:5696   */\n      dup3\n        /* \"#utility.yul\":5688:5700   */\n      and\n        /* \"#utility.yul\":5719:5737   */\n      dup1\n        /* \"#utility.yul\":5709:5790   */\n      tag_130\n      jumpi\n        /* \"#utility.yul\":5775:5779   */\n      0x7f\n        /* \"#utility.yul\":5767:5773   */\n      dup3\n        /* \"#utility.yul\":5763:5780   */\n      and\n        /* \"#utility.yul\":5753:5780   */\n      swap2\n      pop\n        /* \"#utility.yul\":5709:5790   */\n    tag_130:\n        /* \"#utility.yul\":5837:5839   */\n      0x20\n        /* \"#utility.yul\":5829:5835   */\n      dup3\n        /* \"#utility.yul\":5826:5840   */\n      lt\n        /* \"#utility.yul\":5806:5824   */\n      dup2\n        /* \"#utility.yul\":5803:5841   */\n      eq\n        /* \"#utility.yul\":5800:5884   */\n      iszero\n      tag_131\n      jumpi\n        /* \"#utility.yul\":5856:5874   */\n      tag_132\n      tag_133\n      jump\t// in\n    tag_132:\n        /* \"#utility.yul\":5800:5884   */\n    tag_131:\n        /* \"#utility.yul\":5621:5890   */\n      pop\n        /* \"#utility.yul\":5570:5890   */\n      swap2\n      swap1\n      pop\n      jump\t// out\n        /* \"#utility.yul\":5896:6177   */\n    tag_110:\n        /* \"#utility.yul\":5979:6006   */\n      tag_135\n        /* \"#utility.yul\":6001:6005   */\n      dup3\n        /* \"#utility.yul\":5979:6006   */\n      tag_117\n      jump\t// in\n    tag_135:\n        /* \"#utility.yul\":5971:5977   */\n      dup2\n        /* \"#utility.yul\":5967:6007   */\n      add\n        /* \"#utility.yul\":6109:6115   */\n      dup2\n        /* \"#utility.yul\":6097:6107   */\n      dup2\n        /* \"#utility.yul\":6094:6116   */\n      lt\n        /* \"#utility.yul\":6073:6091   */\n      0xffffffffffffffff\n        /* \"#utility.yul\":6061:6071   */\n      dup3\n        /* \"#utility.yul\":6058:6092   */\n      gt\n        /* \"#utility.yul\":6055:6117   */\n      or\n        /* \"#utility.yul\":6052:6140   */\n      iszero\n      tag_136\n      jumpi\n        /* \"#utility.yul\":6120:6138   */\n      tag_137\n      tag_115\n      jump\t// in\n    tag_137:\n        /* \"#utility.yul\":6052:6140   */\n    tag_136:\n        /* \"#utility.yul\":6160:6170   */\n      dup1\n        /* \"#utility.yul\":6156:6158   */\n      0x40\n        /* \"#utility.yul\":6149:6171   */\n      mstore\n        /* \"#utility.yul\":5939:6177   */\n      pop\n        /* \"#utility.yul\":5896:6177   */\n      pop\n      pop\n      jump\t// out\n        /* \"#utility.yul\":6183:6363   */\n    tag_133:\n        /* \"#utility.yul\":6231:6308   */\n      0x4e487b7100000000000000000000000000000000000000000000000000000000\n        /* \"#utility.yul\":6228:6229   */\n      0x00\n        /* \"#utility.yul\":6221:6309   */\n      mstore\n        /* \"#utility.yul\":6328:6332   */\n      0x22\n        /* \"#utility.yul\":6325:6326   */\n      0x04\n        /* \"#utility.yul\":6318:6333   */\n      mstore\n        /* \"#utility.yul\":6352:6356   */\n      0x24\n        /* \"#utility.yul\":6349:6350   */\n      0x00\n        /* \"#utility.yul\":6342:6357   */\n      revert\n        /* \"#utility.yul\":6369:6549   */\n    tag_115:\n        /* \"#utility.yul\":6417:6494   */\n      0x4e487b7100000000000000000000000000000000000000000000000000000000\n        /* \"#utility.yul\":6414:6415   */\n      0x00\n        /* \"#utility.yul\":6407:6495   */\n      mstore\n        /* \"#utility.yul\":6514:6518   */\n      0x41\n        /* \"#utility.yul\":6511:6512   */\n      0x04\n        /* \"#utility.yul\":6504:6519   */\n      mstore\n        /* \"#utility.yul\":6538:6542   */\n      0x24\n        /* \"#utility.yul\":6535:6536   */\n      0x00\n        /* \"#utility.yul\":6528:6543   */\n      revert\n        /* \"#utility.yul\":6555:6672   */\n    tag_59:\n        /* \"#utility.yul\":6664:6665   */\n      0x00\n        /* \"#utility.yul\":6661:6662   */\n      dup1\n        /* \"#utility.yul\":6654:6666   */\n      revert\n        /* \"#utility.yul\":6678:6795   */\n    tag_48:\n        /* \"#utility.yul\":6787:6788   */\n      0x00\n        /* \"#utility.yul\":6784:6785   */\n      dup1\n        /* \"#utility.yul\":6777:6789   */\n      revert\n        /* \"#utility.yul\":6801:6918   */\n    tag_76:\n        /* \"#utility.yul\":6910:6911   */\n      0x00\n        /* \"#utility.yul\":6907:6908   */\n      dup1\n        /* \"#utility.yul\":6900:6912   */\n      revert\n        /* \"#utility.yul\":6924:7041   */\n    tag_68:\n        /* \"#utility.yul\":7033:7034   */\n      0x00\n        /* \"#utility.yul\":7030:7031   */\n      dup1\n        /* \"#utility.yul\":7023:7035   */\n      revert\n        /* \"#utility.yul\":7047:7149   */\n    tag_117:\n        /* \"#utility.yul\":7088:7094   */\n      0x00\n        /* \"#utility.yul\":7139:7141   */\n      0x1f\n        /* \"#utility.yul\":7135:7142   */\n      not\n        /* \"#utility.yul\":7130:7132   */\n      0x1f\n        /* \"#utility.yul\":7123:7128   */\n      dup4\n        /* \"#utility.yul\":7119:7133   */\n      add\n        /* \"#utility.yul\":7115:7143   */\n      and\n        /* \"#utility.yul\":7105:7143   */\n      swap1\n      pop\n        /* \"#utility.yul\":7047:7149   */\n      swap2\n      swap1\n      pop\n      jump\t// out\n        /* \"#utility.yul\":7155:7277   */\n    tag_54:\n        /* \"#utility.yul\":7228:7252   */\n      tag_146\n        /* \"#utility.yul\":7246:7251   */\n      dup2\n        /* \"#utility.yul\":7228:7252   */\n      tag_122\n      jump\t// in\n    tag_146:\n        /* \"#utility.yul\":7221:7226   */\n      dup2\n        /* \"#utility.yul\":7218:7253   */\n      eq\n        /* \"#utility.yul\":7208:7271   */\n      tag_147\n      jumpi\n        /* \"#utility.yul\":7267:7268   */\n      0x00\n        /* \"#utility.yul\":7264:7265   */\n      dup1\n        /* \"#utility.yul\":7257:7269   */\n      revert\n        /* \"#utility.yul\":7208:7271   */\n    tag_147:\n        /* \"#utility.yul\":7155:7277   */\n      pop\n      jump\t// out\n        /* \"#utility.yul\":7283:7405   */\n    tag_64:\n        /* \"#utility.yul\":7356:7380   */\n      tag_149\n        /* \"#utility.yul\":7374:7379   */\n      dup2\n        /* \"#utility.yul\":7356:7380   */\n      tag_103\n      jump\t// in\n    tag_149:\n        /* \"#utility.yul\":7349:7354   */\n      dup2\n        /* \"#utility.yul\":7346:7381   */\n      eq\n        /* \"#utility.yul\":7336:7399   */\n      tag_150\n      jumpi\n        /* \"#utility.yul\":7395:7396   */\n      0x00\n        /* \"#utility.yul\":7392:7393   */\n      dup1\n        /* \"#utility.yul\":7385:7397   */\n      revert\n        /* \"#utility.yul\":7336:7399   */\n    tag_150:\n        /* \"#utility.yul\":7283:7405   */\n      pop\n      jump\t// out\n\n    auxdata: 0xa264697066735822122033b6fcb2cb75ff059e5f4d832da76cd36f04645b3e608fda1c5de9f7f8dff4ac64736f6c63430008070033\n}\n",
				"bytecode": {
					"linkReferences": {},
					"object": "608060405234801561001057600080fd5b506106de806100206000396000f3fe608060405234801561001057600080fd5b50600436106100415760003560e01c806310a506901461004657806371f55c9a14610076578063ce5d52e714610092575b600080fd5b610060600480360381019061005b919061034a565b6100ae565b60405161006d9190610498565b60405180910390f35b610090600480360381019061008b9190610377565b610147565b005b6100ac60048036038101906100a791906103d3565b6101a1565b005b60606000808373ffffffffffffffffffffffffffffffffffffffff1673ffffffffffffffffffffffffffffffffffffffff16815260200190815260200160002060020180548060200260200160405190810160405280929190818152602001828054801561013b57602002820191906000526020600020905b815481526020019060010190808311610127575b50505050509050919050565b806000808473ffffffffffffffffffffffffffffffffffffffff1673ffffffffffffffffffffffffffffffffffffffff168152602001908152602001600020600001908051906020019061019c92919061020d565b505050565b6000808373ffffffffffffffffffffffffffffffffffffffff1673ffffffffffffffffffffffffffffffffffffffff1681526020019081526020016000206002018190806001815401808255809150506001900390600052602060002001600090919091909150555050565b82805461021990610594565b90600052602060002090601f01602090048101928261023b5760008555610282565b82601f1061025457805160ff1916838001178555610282565b82800160010185558215610282579182015b82811115610281578251825591602001919060010190610266565b5b50905061028f9190610293565b5090565b5b808211156102ac576000816000905550600101610294565b5090565b60006102c36102be846104df565b6104ba565b9050828152602081018484840111156102df576102de61065a565b5b6102ea848285610585565b509392505050565b6000813590506103018161067a565b92915050565b600082601f83011261031c5761031b610655565b5b813561032c8482602086016102b0565b91505092915050565b60008135905061034481610691565b92915050565b6000602082840312156103605761035f610664565b5b600061036e848285016102f2565b91505092915050565b6000806040838503121561038e5761038d610664565b5b600061039c858286016102f2565b925050602083013567ffffffffffffffff8111156103bd576103bc61065f565b5b6103c985828601610307565b9150509250929050565b600080604083850312156103ea576103e9610664565b5b60006103f8858286016102f2565b925050602061040985828601610335565b9150509250929050565b600061041f8383610489565b60208301905092915050565b600061043682610520565b6104408185610538565b935061044b83610510565b8060005b8381101561047c5781516104638882610413565b975061046e8361052b565b92505060018101905061044f565b5085935050505092915050565b6104928161057b565b82525050565b600060208201905081810360008301526104b2818461042b565b905092915050565b60006104c46104d5565b90506104d082826105c6565b919050565b6000604051905090565b600067ffffffffffffffff8211156104fa576104f9610626565b5b61050382610669565b9050602081019050919050565b6000819050602082019050919050565b600081519050919050565b6000602082019050919050565b600082825260208201905092915050565b60006105548261055b565b9050919050565b600073ffffffffffffffffffffffffffffffffffffffff82169050919050565b6000819050919050565b82818337600083830152505050565b600060028204905060018216806105ac57607f821691505b602082108114156105c0576105bf6105f7565b5b50919050565b6105cf82610669565b810181811067ffffffffffffffff821117156105ee576105ed610626565b5b80604052505050565b7f4e487b7100000000000000000000000000000000000000000000000000000000600052602260045260246000fd5b7f4e487b7100000000000000000000000000000000000000000000000000000000600052604160045260246000fd5b600080fd5b600080fd5b600080fd5b600080fd5b6000601f19601f8301169050919050565b61068381610549565b811461068e57600080fd5b50565b61069a8161057b565b81146106a557600080fd5b5056fea264697066735822122033b6fcb2cb75ff059e5f4d832da76cd36f04645b3e608fda1c5de9f7f8dff4ac64736f6c63430008070033",
					"opcodes": "PUSH1 0x80 PUSH1 0x40 MSTORE CALLVALUE DUP1 ISZERO PUSH2 0x10 JUMPI PUSH1 0x0 DUP1 REVERT JUMPDEST POP PUSH2 0x6DE DUP1 PUSH2 0x20 PUSH1 0x0 CODECOPY PUSH1 0x0 RETURN INVALID PUSH1 0x80 PUSH1 0x40 MSTORE CALLVALUE DUP1 ISZERO PUSH2 0x10 JUMPI PUSH1 0x0 DUP1 REVERT JUMPDEST POP PUSH1 0x4 CALLDATASIZE LT PUSH2 0x41 JUMPI PUSH1 0x0 CALLDATALOAD PUSH1 0xE0 SHR DUP1 PUSH4 0x10A50690 EQ PUSH2 0x46 JUMPI DUP1 PUSH4 0x71F55C9A EQ PUSH2 0x76 JUMPI DUP1 PUSH4 0xCE5D52E7 EQ PUSH2 0x92 JUMPI JUMPDEST PUSH1 0x0 DUP1 REVERT JUMPDEST PUSH2 0x60 PUSH1 0x4 DUP1 CALLDATASIZE SUB DUP2 ADD SWAP1 PUSH2 0x5B SWAP2 SWAP1 PUSH2 0x34A JUMP JUMPDEST PUSH2 0xAE JUMP JUMPDEST PUSH1 0x40 MLOAD PUSH2 0x6D SWAP2 SWAP1 PUSH2 0x498 JUMP JUMPDEST PUSH1 0x40 MLOAD DUP1 SWAP2 SUB SWAP1 RETURN JUMPDEST PUSH2 0x90 PUSH1 0x4 DUP1 CALLDATASIZE SUB DUP2 ADD SWAP1 PUSH2 0x8B SWAP2 SWAP1 PUSH2 0x377 JUMP JUMPDEST PUSH2 0x147 JUMP JUMPDEST STOP JUMPDEST PUSH2 0xAC PUSH1 0x4 DUP1 CALLDATASIZE SUB DUP2 ADD SWAP1 PUSH2 0xA7 SWAP2 SWAP1 PUSH2 0x3D3 JUMP JUMPDEST PUSH2 0x1A1 JUMP JUMPDEST STOP JUMPDEST PUSH1 0x60 PUSH1 0x0 DUP1 DUP4 PUSH20 0xFFFFFFFFFFFFFFFFFFFFFFFFFFFFFFFFFFFFFFFF AND PUSH20 0xFFFFFFFFFFFFFFFFFFFFFFFFFFFFFFFFFFFFFFFF AND DUP2 MSTORE PUSH1 0x20 ADD SWAP1 DUP2 MSTORE PUSH1 0x20 ADD PUSH1 0x0 KECCAK256 PUSH1 0x2 ADD DUP1 SLOAD DUP1 PUSH1 0x20 MUL PUSH1 0x20 ADD PUSH1 0x40 MLOAD SWAP1 DUP2 ADD PUSH1 0x40 MSTORE DUP1 SWAP3 SWAP2 SWAP1 DUP2 DUP2 MSTORE PUSH1 0x20 ADD DUP3 DUP1 SLOAD DUP1 ISZERO PUSH2 0x13B JUMPI PUSH1 0x20 MUL DUP3 ADD SWAP2 SWAP1 PUSH1 0x0 MSTORE PUSH1 0x20 PUSH1 0x0 KECCAK256 SWAP1 JUMPDEST DUP2 SLOAD DUP2 MSTORE PUSH1 0x20 ADD SWAP1 PUSH1 0x1 ADD SWAP1 DUP1 DUP4 GT PUSH2 0x127 JUMPI JUMPDEST POP POP POP POP POP SWAP1 POP SWAP2 SWAP1 POP JUMP JUMPDEST DUP1 PUSH1 0x0 DUP1 DUP5 PUSH20 0xFFFFFFFFFFFFFFFFFFFFFFFFFFFFFFFFFFFFFFFF AND PUSH20 0xFFFFFFFFFFFFFFFFFFFFFFFFFFFFFFFFFFFFFFFF AND DUP2 MSTORE PUSH1 0x20 ADD SWAP1 DUP2 MSTORE PUSH1 0x20 ADD PUSH1 0x0 KECCAK256 PUSH1 0x0 ADD SWAP1 DUP1 MLOAD SWAP1 PUSH1 0x20 ADD SWAP1 PUSH2 0x19C SWAP3 SWAP2 SWAP1 PUSH2 0x20D JUMP JUMPDEST POP POP POP JUMP JUMPDEST PUSH1 0x0 DUP1 DUP4 PUSH20 0xFFFFFFFFFFFFFFFFFFFFFFFFFFFFFFFFFFFFFFFF AND PUSH20 0xFFFFFFFFFFFFFFFFFFFFFFFFFFFFFFFFFFFFFFFF AND DUP2 MSTORE PUSH1 0x20 ADD SWAP1 DUP2 MSTORE PUSH1 0x20 ADD PUSH1 0x0 KECCAK256 PUSH1 0x2 ADD DUP2 SWAP1 DUP1 PUSH1 0x1 DUP2 SLOAD ADD DUP1 DUP3 SSTORE DUP1 SWAP2 POP POP PUSH1 0x1 SWAP1 SUB SWAP1 PUSH1 0x0 MSTORE PUSH1 0x20 PUSH1 0x0 KECCAK256 ADD PUSH1 0x0 SWAP1 SWAP2 SWAP1 SWAP2 SWAP1 SWAP2 POP SSTORE POP POP JUMP JUMPDEST DUP3 DUP1 SLOAD PUSH2 0x219 SWAP1 PUSH2 0x594 JUMP JUMPDEST SWAP1 PUSH1 0x0 MSTORE PUSH1 0x20 PUSH1 0x0 KECCAK256 SWAP1 PUSH1 0x1F ADD PUSH1 0x20 SWAP1 DIV DUP2 ADD SWAP3 DUP3 PUSH2 0x23B JUMPI PUSH1 0x0 DUP6 SSTORE PUSH2 0x282 JUMP JUMPDEST DUP3 PUSH1 0x1F LT PUSH2 0x254 JUMPI DUP1 MLOAD PUSH1 0xFF NOT AND DUP4 DUP1 ADD OR DUP6 SSTORE PUSH2 0x282 JUMP JUMPDEST DUP3 DUP1 ADD PUSH1 0x1 ADD DUP6 SSTORE DUP3 ISZERO PUSH2 0x282 JUMPI SWAP2 DUP3 ADD JUMPDEST DUP3 DUP2 GT ISZERO PUSH2 0x281 JUMPI DUP3 MLOAD DUP3 SSTORE SWAP2 PUSH1 0x20 ADD SWAP2 SWAP1 PUSH1 0x1 ADD SWAP1 PUSH2 0x266 JUMP JUMPDEST JUMPDEST POP SWAP1 POP PUSH2 0x28F SWAP2 SWAP1 PUSH2 0x293 JUMP JUMPDEST POP SWAP1 JUMP JUMPDEST JUMPDEST DUP1 DUP3 GT ISZERO PUSH2 0x2AC JUMPI PUSH1 0x0 DUP2 PUSH1 0x0 SWAP1 SSTORE POP PUSH1 0x1 ADD PUSH2 0x294 JUMP JUMPDEST POP SWAP1 JUMP JUMPDEST PUSH1 0x0 PUSH2 0x2C3 PUSH2 0x2BE DUP5 PUSH2 0x4DF JUMP JUMPDEST PUSH2 0x4BA JUMP JUMPDEST SWAP1 POP DUP3 DUP2 MSTORE PUSH1 0x20 DUP2 ADD DUP5 DUP5 DUP5 ADD GT ISZERO PUSH2 0x2DF JUMPI PUSH2 0x2DE PUSH2 0x65A JUMP JUMPDEST JUMPDEST PUSH2 0x2EA DUP5 DUP3 DUP6 PUSH2 0x585 JUMP JUMPDEST POP SWAP4 SWAP3 POP POP POP JUMP JUMPDEST PUSH1 0x0 DUP2 CALLDATALOAD SWAP1 POP PUSH2 0x301 DUP2 PUSH2 0x67A JUMP JUMPDEST SWAP3 SWAP2 POP POP JUMP JUMPDEST PUSH1 0x0 DUP3 PUSH1 0x1F DUP4 ADD SLT PUSH2 0x31C JUMPI PUSH2 0x31B PUSH2 0x655 JUMP JUMPDEST JUMPDEST DUP2 CALLDATALOAD PUSH2 0x32C DUP5 DUP3 PUSH1 0x20 DUP7 ADD PUSH2 0x2B0 JUMP JUMPDEST SWAP2 POP POP SWAP3 SWAP2 POP POP JUMP JUMPDEST PUSH1 0x0 DUP2 CALLDATALOAD SWAP1 POP PUSH2 0x344 DUP2 PUSH2 0x691 JUMP JUMPDEST SWAP3 SWAP2 POP POP JUMP JUMPDEST PUSH1 0x0 PUSH1 0x20 DUP3 DUP5 SUB SLT ISZERO PUSH2 0x360 JUMPI PUSH2 0x35F PUSH2 0x664 JUMP JUMPDEST JUMPDEST PUSH1 0x0 PUSH2 0x36E DUP5 DUP3 DUP6 ADD PUSH2 0x2F2 JUMP JUMPDEST SWAP2 POP POP SWAP3 SWAP2 POP POP JUMP JUMPDEST PUSH1 0x0 DUP1 PUSH1 0x40 DUP4 DUP6 SUB SLT ISZERO PUSH2 0x38E JUMPI PUSH2 0x38D PUSH2 0x664 JUMP JUMPDEST JUMPDEST PUSH1 0x0 PUSH2 0x39C DUP6 DUP3 DUP7 ADD PUSH2 0x2F2 JUMP JUMPDEST SWAP3 POP POP PUSH1 0x20 DUP4 ADD CALLDATALOAD PUSH8 0xFFFFFFFFFFFFFFFF DUP2 GT ISZERO PUSH2 0x3BD JUMPI PUSH2 0x3BC PUSH2 0x65F JUMP JUMPDEST JUMPDEST PUSH2 0x3C9 DUP6 DUP3 DUP7 ADD PUSH2 0x307 JUMP JUMPDEST SWAP2 POP POP SWAP3 POP SWAP3 SWAP1 POP JUMP JUMPDEST PUSH1 0x0 DUP1 PUSH1 0x40 DUP4 DUP6 SUB SLT ISZERO PUSH2 0x3EA JUMPI PUSH2 0x3E9 PUSH2 0x664 JUMP JUMPDEST JUMPDEST PUSH1 0x0 PUSH2 0x3F8 DUP6 DUP3 DUP7 ADD PUSH2 0x2F2 JUMP JUMPDEST SWAP3 POP POP PUSH1 0x20 PUSH2 0x409 DUP6 DUP3 DUP7 ADD PUSH2 0x335 JUMP JUMPDEST SWAP2 POP POP SWAP3 POP SWAP3 SWAP1 POP JUMP JUMPDEST PUSH1 0x0 PUSH2 0x41F DUP4 DUP4 PUSH2 0x489 JUMP JUMPDEST PUSH1 0x20 DUP4 ADD SWAP1 POP SWAP3 SWAP2 POP POP JUMP JUMPDEST PUSH1 0x0 PUSH2 0x436 DUP3 PUSH2 0x520 JUMP JUMPDEST PUSH2 0x440 DUP2 DUP6 PUSH2 0x538 JUMP JUMPDEST SWAP4 POP PUSH2 0x44B DUP4 PUSH2 0x510 JUMP JUMPDEST DUP1 PUSH1 0x0 JUMPDEST DUP4 DUP2 LT ISZERO PUSH2 0x47C JUMPI DUP2 MLOAD PUSH2 0x463 DUP9 DUP3 PUSH2 0x413 JUMP JUMPDEST SWAP8 POP PUSH2 0x46E DUP4 PUSH2 0x52B JUMP JUMPDEST SWAP3 POP POP PUSH1 0x1 DUP2 ADD SWAP1 POP PUSH2 0x44F JUMP JUMPDEST POP DUP6 SWAP4 POP POP POP POP SWAP3 SWAP2 POP POP JUMP JUMPDEST PUSH2 0x492 DUP2 PUSH2 0x57B JUMP JUMPDEST DUP3 MSTORE POP POP JUMP JUMPDEST PUSH1 0x0 PUSH1 0x20 DUP3 ADD SWAP1 POP DUP2 DUP2 SUB PUSH1 0x0 DUP4 ADD MSTORE PUSH2 0x4B2 DUP2 DUP5 PUSH2 0x42B JUMP JUMPDEST SWAP1 POP SWAP3 SWAP2 POP POP JUMP JUMPDEST PUSH1 0x0 PUSH2 0x4C4 PUSH2 0x4D5 JUMP JUMPDEST SWAP1 POP PUSH2 0x4D0 DUP3 DUP3 PUSH2 0x5C6 JUMP JUMPDEST SWAP2 SWAP1 POP JUMP JUMPDEST PUSH1 0x0 PUSH1 0x40 MLOAD SWAP1 POP SWAP1 JUMP JUMPDEST PUSH1 0x0 PUSH8 0xFFFFFFFFFFFFFFFF DUP3 GT ISZERO PUSH2 0x4FA JUMPI PUSH2 0x4F9 PUSH2 0x626 JUMP JUMPDEST JUMPDEST PUSH2 0x503 DUP3 PUSH2 0x669 JUMP JUMPDEST SWAP1 POP PUSH1 0x20 DUP2 ADD SWAP1 POP SWAP2 SWAP1 POP JUMP JUMPDEST PUSH1 0x0 DUP2 SWAP1 POP PUSH1 0x20 DUP3 ADD SWAP1 POP SWAP2 SWAP1 POP JUMP JUMPDEST PUSH1 0x0 DUP2 MLOAD SWAP1 POP SWAP2 SWAP1 POP JUMP JUMPDEST PUSH1 0x0 PUSH1 0x20 DUP3 ADD SWAP1 POP SWAP2 SWAP1 POP JUMP JUMPDEST PUSH1 0x0 DUP3 DUP3 MSTORE PUSH1 0x20 DUP3 ADD SWAP1 POP SWAP3 SWAP2 POP POP JUMP JUMPDEST PUSH1 0x0 PUSH2 0x554 DUP3 PUSH2 0x55B JUMP JUMPDEST SWAP1 POP SWAP2 SWAP1 POP JUMP JUMPDEST PUSH1 0x0 PUSH20 0xFFFFFFFFFFFFFFFFFFFFFFFFFFFFFFFFFFFFFFFF DUP3 AND SWAP1 POP SWAP2 SWAP1 POP JUMP JUMPDEST PUSH1 0x0 DUP2 SWAP1 POP SWAP2 SWAP1 POP JUMP JUMPDEST DUP3 DUP2 DUP4 CALLDATACOPY PUSH1 0x0 DUP4 DUP4 ADD MSTORE POP POP POP JUMP JUMPDEST PUSH1 0x0 PUSH1 0x2 DUP3 DIV SWAP1 POP PUSH1 0x1 DUP3 AND DUP1 PUSH2 0x5AC JUMPI PUSH1 0x7F DUP3 AND SWAP2 POP JUMPDEST PUSH1 0x20 DUP3 LT DUP2 EQ ISZERO PUSH2 0x5C0 JUMPI PUSH2 0x5BF PUSH2 0x5F7 JUMP JUMPDEST JUMPDEST POP SWAP2 SWAP1 POP JUMP JUMPDEST PUSH2 0x5CF DUP3 PUSH2 0x669 JUMP JUMPDEST DUP2 ADD DUP2 DUP2 LT PUSH8 0xFFFFFFFFFFFFFFFF DUP3 GT OR ISZERO PUSH2 0x5EE JUMPI PUSH2 0x5ED PUSH2 0x626 JUMP JUMPDEST JUMPDEST DUP1 PUSH1 0x40 MSTORE POP POP POP JUMP JUMPDEST PUSH32 0x4E487B7100000000000000000000000000000000000000000000000000000000 PUSH1 0x0 MSTORE PUSH1 0x22 PUSH1 0x4 MSTORE PUSH1 0x24 PUSH1 0x0 REVERT JUMPDEST PUSH32 0x4E487B7100000000000000000000000000000000000000000000000000000000 PUSH1 0x0 MSTORE PUSH1 0x41 PUSH1 0x4 MSTORE PUSH1 0x24 PUSH1 0x0 REVERT JUMPDEST PUSH1 0x0 DUP1 REVERT JUMPDEST PUSH1 0x0 DUP1 REVERT JUMPDEST PUSH1 0x0 DUP1 REVERT JUMPDEST PUSH1 0x0 DUP1 REVERT JUMPDEST PUSH1 0x0 PUSH1 0x1F NOT PUSH1 0x1F DUP4 ADD AND SWAP1 POP SWAP2 SWAP1 POP JUMP JUMPDEST PUSH2 0x683 DUP2 PUSH2 0x549 JUMP JUMPDEST DUP2 EQ PUSH2 0x68E JUMPI PUSH1 0x0 DUP1 REVERT JUMPDEST POP JUMP JUMPDEST PUSH2 0x69A DUP2 PUSH2 0x57B JUMP JUMPDEST DUP2 EQ PUSH2 0x6A5 JUMPI PUSH1 0x0 DUP1 REVERT JUMPDEST POP JUMP INVALID LOG2 PUSH5 0x6970667358 0x22 SLT KECCAK256 CALLER 0xB6 0xFC 0xB2 0xCB PUSH22 0xFF059E5F4D832DA76CD36F04645B3E608FDA1C5DE9F7 0xF8 0xDF DELEGATECALL 0xAC PUSH5 0x736F6C6343 STOP ADDMOD SMOD STOP CALLER "
				},
				"gasEstimates": {
					"creation": {
						"codeDepositCost": "351600",
						"executionCost": "386",
						"totalCost": "351986"
					},
					"external": {
						"addNote(address,uint256)": "47169",
						"getNotes(address)": "infinite",
						"setNom(address,string)": "infinite"
					}
				},
				"methodIdentifiers": {
					"addNote(address,uint256)": "ce5d52e7",
					"getNotes(address)": "10a50690",
					"setNom(address,string)": "71f55c9a"
				}
			},
			"storageLayout": {
				"storage": [
					{
						"astId": 14,
						"contract": "contracts/exercice.sol:Exercice",
						"label": "Eleves",
						"offset": 0,
						"slot": "0",
						"type": "t_mapping(t_address,t_struct(eleve)9_storage)"
					}
				],
				"types": {
					"t_address": {
						"encoding": "inplace",
						"label": "address",
						"numberOfBytes": "20"
					},
					"t_array(t_uint256)dyn_storage": {
						"base": "t_uint256",
						"encoding": "dynamic_array",
						"label": "uint256[]",
						"numberOfBytes": "32"
					},
					"t_mapping(t_address,t_struct(eleve)9_storage)": {
						"encoding": "mapping",
						"key": "t_address",
						"label": "mapping(address => struct Exercice.eleve)",
						"numberOfBytes": "32",
						"value": "t_struct(eleve)9_storage"
					},
					"t_string_storage": {
						"encoding": "bytes",
						"label": "string",
						"numberOfBytes": "32"
					},
					"t_struct(eleve)9_storage": {
						"encoding": "inplace",
						"label": "struct Exercice.eleve",
						"members": [
							{
								"astId": 3,
								"contract": "contracts/exercice.sol:Exercice",
								"label": "nom",
								"offset": 0,
								"slot": "0",
								"type": "t_string_storage"
							},
							{
								"astId": 5,
								"contract": "contracts/exercice.sol:Exercice",
								"label": "prenom",
								"offset": 0,
								"slot": "1",
								"type": "t_string_storage"
							},
							{
								"astId": 8,
								"contract": "contracts/exercice.sol:Exercice",
								"label": "notes",
								"offset": 0,
								"slot": "2",
								"type": "t_array(t_uint256)dyn_storage"
							}
						],
						"numberOfBytes": "96"
					},
					"t_uint256": {
						"encoding": "inplace",
						"label": "uint256",
						"numberOfBytes": "32"
					}
				}
			},
			"userdoc": {
				"kind": "user",
				"methods": {},
				"version": 1
			}
		}
	}
}